{"contracts/World3.sol":{"World3":{"abi":[{"inputs":[{"internalType":"address","name":"_priceFeedAddress","type":"address"},{"internalType":"address","name":"_vrfCoordinator","type":"address"},{"internalType":"address","name":"_linkToken","type":"address"},{"internalType":"bytes32","name":"_keyHash","type":"bytes32"},{"internalType":"uint256","name":"_fee","type":"uint256"}],"stateMutability":"nonpayable","type":"constructor"},{"inputs":[],"name":"MIN_THRESHOLD_PERCENTAGE","outputs":[{"internalType":"uint256","name":"","type":"uint256"}],"stateMutability":"view","type":"function"},{"inputs":[],"name":"THRESHOLD","outputs":[{"internalType":"uint256","name":"","type":"uint256"}],"stateMutability":"view","type":"function"},{"inputs":[{"internalType":"uint256","name":"_donationId","type":"uint256"},{"internalType":"uint256","name":"_amount","type":"uint256"}],"name":"addDonation","outputs":[],"stateMutability":"nonpayable","type":"function"},{"inputs":[{"internalType":"bytes","name":"_data","type":"bytes"}],"name":"checkUpkeep","outputs":[{"internalType":"bool","name":"upkeepNeeded","type":"bool"},{"internalType":"bytes","name":"performData","type":"bytes"}],"stateMutability":"view","type":"function"},{"inputs":[{"internalType":"string","name":"_name","type":"string"},{"internalType":"string","name":"_description","type":"string"},{"internalType":"uint256","name":"_goal","type":"uint256"},{"internalType":"string[]","name":"_pictures","type":"string[]"},{"internalType":"string","name":"_category","type":"string"},{"internalType":"uint256","name":"_startTime","type":"uint256"},{"internalType":"uint256","name":"_endTime","type":"uint256"},{"internalType":"string","name":"_county","type":"string"}],"name":"createDonation","outputs":[],"stateMutability":"nonpayable","type":"function"},{"inputs":[],"name":"donationAccumulated","outputs":[{"internalType":"uint256","name":"","type":"uint256"}],"stateMutability":"view","type":"function"},{"inputs":[],"name":"donationCount","outputs":[{"internalType":"uint256","name":"","type":"uint256"}],"stateMutability":"view","type":"function"},{"inputs":[{"internalType":"uint256","name":"","type":"uint256"}],"name":"donations","outputs":[{"internalType":"uint256","name":"donationId","type":"uint256"},{"internalType":"string","name":"name","type":"string"},{"internalType":"string","name":"description","type":"string"},{"internalType":"uint256","name":"goal","type":"uint256"},{"internalType":"uint256","name":"amountRaised","type":"uint256"},{"internalType":"uint256","name":"toGo","type":"uint256"},{"internalType":"string","name":"category","type":"string"},{"internalType":"uint256","name":"startTime","type":"uint256"},{"internalType":"uint256","name":"endTime","type":"uint256"},{"internalType":"string","name":"county","type":"string"}],"stateMutability":"view","type":"function"},{"inputs":[{"internalType":"uint256","name":"_donationId","type":"uint256"},{"internalType":"string","name":"_name","type":"string"},{"internalType":"string","name":"_description","type":"string"},{"internalType":"uint256","name":"_goal","type":"uint256"},{"internalType":"string[]","name":"_pictures","type":"string[]"},{"internalType":"string","name":"_category","type":"string"},{"internalType":"uint256","name":"_startTime","type":"uint256"},{"internalType":"uint256","name":"_endTime","type":"uint256"},{"internalType":"string","name":"_county","type":"string"}],"name":"editDonation","outputs":[],"stateMutability":"nonpayable","type":"function"},{"inputs":[],"name":"endTime","outputs":[{"internalType":"uint256","name":"","type":"uint256"}],"stateMutability":"view","type":"function"},{"inputs":[{"internalType":"uint256","name":"_donationId","type":"uint256"}],"name":"getDonation","outputs":[{"components":[{"internalType":"uint256","name":"donationId","type":"uint256"},{"internalType":"string","name":"name","type":"string"},{"internalType":"string","name":"description","type":"string"},{"internalType":"uint256","name":"goal","type":"uint256"},{"internalType":"uint256","name":"amountRaised","type":"uint256"},{"internalType":"uint256","name":"toGo","type":"uint256"},{"internalType":"string[]","name":"pictures","type":"string[]"},{"internalType":"string","name":"category","type":"string"},{"internalType":"uint256[]","name":"donorAmounts","type":"uint256[]"},{"internalType":"address[]","name":"donors","type":"address[]"},{"internalType":"uint256","name":"startTime","type":"uint256"},{"internalType":"uint256","name":"endTime","type":"uint256"},{"internalType":"string","name":"county","type":"string"}],"internalType":"struct World3.Donation","name":"","type":"tuple"}],"stateMutability":"view","type":"function"},{"inputs":[{"internalType":"uint256","name":"_donationId","type":"uint256"}],"name":"getDonationValueInUSD","outputs":[{"internalType":"uint256","name":"","type":"uint256"}],"stateMutability":"view","type":"function"},{"inputs":[],"name":"getDonations","outputs":[{"components":[{"internalType":"uint256","name":"donationId","type":"uint256"},{"internalType":"string","name":"name","type":"string"},{"internalType":"string","name":"description","type":"string"},{"internalType":"uint256","name":"goal","type":"uint256"},{"internalType":"uint256","name":"amountRaised","type":"uint256"},{"internalType":"uint256","name":"toGo","type":"uint256"},{"internalType":"string[]","name":"pictures","type":"string[]"},{"internalType":"string","name":"category","type":"string"},{"internalType":"uint256[]","name":"donorAmounts","type":"uint256[]"},{"internalType":"address[]","name":"donors","type":"address[]"},{"internalType":"uint256","name":"startTime","type":"uint256"},{"internalType":"uint256","name":"endTime","type":"uint256"},{"internalType":"string","name":"county","type":"string"}],"internalType":"struct World3.Donation[]","name":"","type":"tuple[]"}],"stateMutability":"view","type":"function"},{"inputs":[{"internalType":"uint256","name":"_donationId","type":"uint256"}],"name":"getRandomNumber","outputs":[{"internalType":"bytes32","name":"requestId","type":"bytes32"}],"stateMutability":"nonpayable","type":"function"},{"inputs":[{"internalType":"address","name":"_user","type":"address"}],"name":"getUserDonations","outputs":[{"components":[{"internalType":"uint256","name":"donationId","type":"uint256"},{"internalType":"string","name":"name","type":"string"},{"internalType":"string","name":"description","type":"string"},{"internalType":"uint256","name":"goal","type":"uint256"},{"internalType":"uint256","name":"amountRaised","type":"uint256"},{"internalType":"uint256","name":"toGo","type":"uint256"},{"internalType":"string[]","name":"pictures","type":"string[]"},{"internalType":"string","name":"category","type":"string"},{"internalType":"uint256[]","name":"donorAmounts","type":"uint256[]"},{"internalType":"address[]","name":"donors","type":"address[]"},{"internalType":"uint256","name":"startTime","type":"uint256"},{"internalType":"uint256","name":"endTime","type":"uint256"},{"internalType":"string","name":"county","type":"string"}],"internalType":"struct World3.Donation[]","name":"","type":"tuple[]"}],"stateMutability":"view","type":"function"},{"inputs":[{"internalType":"uint256","name":"_donationId","type":"uint256"}],"name":"hideDonation","outputs":[],"stateMutability":"nonpayable","type":"function"},{"inputs":[],"name":"owner","outputs":[{"internalType":"address","name":"","type":"address"}],"stateMutability":"view","type":"function"},{"inputs":[{"internalType":"bytes","name":"_performData","type":"bytes"}],"name":"performUpkeep","outputs":[],"stateMutability":"nonpayable","type":"function"},{"inputs":[],"name":"randomResult","outputs":[{"internalType":"uint256","name":"","type":"uint256"}],"stateMutability":"view","type":"function"},{"inputs":[{"internalType":"bytes32","name":"requestId","type":"bytes32"},{"internalType":"uint256","name":"randomness","type":"uint256"}],"name":"rawFulfillRandomness","outputs":[],"stateMutability":"nonpayable","type":"function"},{"inputs":[{"internalType":"uint256","name":"_donationId","type":"uint256"},{"internalType":"uint256","name":"_endTime","type":"uint256"}],"name":"scheduleEndDonation","outputs":[],"stateMutability":"nonpayable","type":"function"}],"evm":{"bytecode":{"linkReferences":{},"object":"60c06040523480156200001157600080fd5b50604051620029a7380380620029a783398101604081905262000034916200008d565b6001600160a01b0393841660a052918316608052600480546001600160a01b0319169490931693909317909155600591909155600655620000ea565b80516001600160a01b03811681146200008857600080fd5b919050565b600080600080600060a08688031215620000a657600080fd5b620000b18662000070565b9450620000c16020870162000070565b9350620000d16040870162000070565b6060870151608090970151959894975095949392505050565b60805160a0516128896200011e60003960008181610a990152611bbd015260008181610b130152611b8e01526128896000f3fe608060405234801561001057600080fd5b50600436106101075760003560e01c80631cc4654d1461010c5780632abfab4d146101215780632cb8f7931461013d5780633197cbb61461015057806342619f66146101595780634585e33b1461016257806345f5d7ac14610175578063669c2f811461017e5780636e04ff0d14610191578063732435b2146101b7578063785ffb37146101d75780638da5cb5b146101df57806394985ddd146101ed578063b37217a414610200578063d87ffb7014610213578063deb0d88314610226578063e25f841614610239578063e39fea2d14610241578063ef07a81f14610249578063f12c754c14610269578063f8626af81461027c575b600080fd5b61011f61011a366004611efc565b6102a5565b005b61012a60035481565b6040519081526020015b60405180910390f35b61012a61014b366004611f1e565b61034d565b61012a60095481565b61012a60075481565b61011f610170366004611fd4565b610405565b61012a60085481565b61011f61018c3660046120da565b610458565b6101a961019f366004611fd4565b6008546064111591565b604051610134929190612215565b6101ca6101c5366004612230565b61053e565b6040516101349190612423565b61012a606481565b336040516101349190612485565b61011f6101fb366004611efc565b610a8e565b61012a61020e366004611f1e565b610b0c565b61011f610221366004611efc565b610c38565b61011f610234366004611f1e565b610dee565b6101ca610eaf565b61012a603281565b61025c610257366004611f1e565b6113d5565b6040516101349190612499565b61011f6102773660046124ac565b61183b565b61028f61028a366004611f1e565b61191d565b6040516101349a999897969594939291906125a4565b6102b3565b60405180910390fd5b8160035481106102d55760405162461bcd60e51b81526004016102aa9061262b565b6000838152600260205260409020600a81015483116103425760405162461bcd60e51b815260206004820152602360248201527f456e642074696d652073686f756c642062652061667465722073746172742074604482015262696d6560e81b60648201526084016102aa565b600b01919091555050565b600081815260026020526040808220600480548351633fabe5a360e21b81529351929385936001600160a01b039092169263feaf968c928282019260a09290829003018186803b1580156103a057600080fd5b505afa1580156103b4573d6000803e3d6000fd5b505050506040513d601f19601f820116820180604052508101906103d89190612678565b5050509150506305f5e1008183600401546103f391906126de565b6103fd91906126fd565b949350505050565b606460085410156104505760405162461bcd60e51b8152602060048201526015602482015274151a1c995cda1bdb19081b9bdd081c995858da1959605a1b60448201526064016102aa565b506000600855565b8183106104775760405162461bcd60e51b81526004016102aa9061271f565b600354600081815260026020908152604090912091825589516104a2916001840191908c0190611d10565b5087516104b890600283019060208b0190611d10565b5060038101879055600060048201556005810187905585516104e39060068301906020890190611d94565b5084516104f99060078301906020880190611d10565b50600a8101849055600b8101839055815161051d90600c8301906020850190611d10565b506003805490600061052e83612753565b9190505550505050505050505050565b6001600160a01b038116600090815260016020908152604080832080548251818502810185019093528083526060949383018282801561059d57602002820191906000526020600020905b815481526020019060010190808311610589575b50505050509050600081516001600160401b038111156105bf576105bf611f37565b6040519080825280602002602001820160405280156105f857816020015b6105e5611ded565b8152602001906001900390816105dd5790505b50905060005b8251811015610a86576002600084838151811061061d5761061d61276e565b60200260200101518152602001908152602001600020604051806101a00160405290816000820154815260200160018201805461065990612784565b80601f016020809104026020016040519081016040528092919081815260200182805461068590612784565b80156106d25780601f106106a7576101008083540402835291602001916106d2565b820191906000526020600020905b8154815290600101906020018083116106b557829003601f168201915b505050505081526020016002820180546106eb90612784565b80601f016020809104026020016040519081016040528092919081815260200182805461071790612784565b80156107645780601f1061073957610100808354040283529160200191610764565b820191906000526020600020905b81548152906001019060200180831161074757829003601f168201915b5050505050815260200160038201548152602001600482015481526020016005820154815260200160068201805480602002602001604051908101604052809291908181526020016000905b8282101561085c5783829060005260206000200180546107cf90612784565b80601f01602080910402602001604051908101604052809291908181526020018280546107fb90612784565b80156108485780601f1061081d57610100808354040283529160200191610848565b820191906000526020600020905b81548152906001019060200180831161082b57829003601f168201915b5050505050815260200190600101906107b0565b50505050815260200160078201805461087490612784565b80601f01602080910402602001604051908101604052809291908181526020018280546108a090612784565b80156108ed5780601f106108c2576101008083540402835291602001916108ed565b820191906000526020600020905b8154815290600101906020018083116108d057829003601f168201915b505050505081526020016008820180548060200260200160405190810160405280929190818152602001828054801561094557602002820191906000526020600020905b815481526020019060010190808311610931575b50505050508152602001600982018054806020026020016040519081016040528092919081815260200182805480156109a757602002820191906000526020600020905b81546001600160a01b03168152600190910190602001808311610989575b50505050508152602001600a8201548152602001600b8201548152602001600c820180546109d490612784565b80601f0160208091040260200160405190810160405280929190818152602001828054610a0090612784565b8015610a4d5780601f10610a2257610100808354040283529160200191610a4d565b820191906000526020600020905b815481529060010190602001808311610a3057829003601f168201915b505050505081525050828281518110610a6857610a6861276e565b60200260200101819052508080610a7e90612753565b9150506105fe565b509392505050565b336001600160a01b037f00000000000000000000000000000000000000000000000000000000000000001614610b065760405162461bcd60e51b815260206004820152601f60248201527f4f6e6c7920565246436f6f7264696e61746f722063616e2066756c66696c6c0060448201526064016102aa565b60075550565b60006006547f00000000000000000000000000000000000000000000000000000000000000006001600160a01b03166370a08231306040518263ffffffff1660e01b8152600401610b5d9190612485565b60206040518083038186803b158015610b7557600080fd5b505afa158015610b89573d6000803e3d6000fd5b505050506040513d601f19601f82011682018060405250810190610bad91906127b9565b1015610c135760405162461bcd60e51b815260206004820152602f60248201527f4e6f7420656e6f756768204c494e4b20746f6b656e7320746f2072657175657360448201526e3a103930b73237b690373ab6b132b960891b60648201526084016102aa565b6000828152600260205260409020600554600654610c319190611b8a565b9392505050565b816003548110610c5a5760405162461bcd60e51b81526004016102aa9061262b565b6000838152600260205260409020600a810154421015610cc65760405162461bcd60e51b815260206004820152602160248201527f446f6e6174696f6e2063616d706169676e20686173206e6f74207374617274656044820152601960fa1b60648201526084016102aa565b80600b0154421115610d185760405162461bcd60e51b815260206004820152601b60248201527a111bdb985d1a5bdb8818d85b5c185a59db881a185cc8195b991959602a1b60448201526064016102aa565b82816004016000828254610d2c91906127d2565b909155505060048101546003820154610d4591906127ea565b6005820155600881018054600181810183556000928352602080842090920186905560098401805480830182559084528284200180546001600160a01b031916339081179091558352808252604083208054918201815583529120018490556003810154606490610db8906032906126de565b610dc291906126fd565b816004015410610de857806004015460086000828254610de291906127d2565b90915550505b50505050565b806003548110610e105760405162461bcd60e51b81526004016102aa9061262b565b600082815260026020526040812081815590610e2f6001830182611e55565b610e3d600283016000611e55565b600382016000905560048201600090556005820160009055600682016000610e659190611e92565b610e73600783016000611e55565b610e81600883016000611eb0565b610e8f600983016000611eb0565b600a820160009055600b820160009055600c82016000610de89190611e55565b606060006003546001600160401b03811115610ecd57610ecd611f37565b604051908082528060200260200182016040528015610f0657816020015b610ef3611ded565b815260200190600190039081610eeb5790505b50905060005b6003548110156113cf57600081815260026020526040812060098101549091906001600160401b03811115610f4357610f43611f37565b604051908082528060200260200182016040528015610f6c578160200160208202803683370190505b50905060005b6009830154811015610fcd57826008018181548110610f9357610f9361276e565b9060005260206000200154828281518110610fb057610fb061276e565b602090810291909101015280610fc581612753565b915050610f72565b50604051806101a0016040528083600001548152602001836001018054610ff390612784565b80601f016020809104026020016040519081016040528092919081815260200182805461101f90612784565b801561106c5780601f106110415761010080835404028352916020019161106c565b820191906000526020600020905b81548152906001019060200180831161104f57829003601f168201915b5050505050815260200183600201805461108590612784565b80601f01602080910402602001604051908101604052809291908181526020018280546110b190612784565b80156110fe5780601f106110d3576101008083540402835291602001916110fe565b820191906000526020600020905b8154815290600101906020018083116110e157829003601f168201915b5050505050815260200183600301548152602001836004015481526020018360050154815260200183600601805480602002602001604051908101604052809291908181526020016000905b828210156111f657838290600052602060002001805461116990612784565b80601f016020809104026020016040519081016040528092919081815260200182805461119590612784565b80156111e25780601f106111b7576101008083540402835291602001916111e2565b820191906000526020600020905b8154815290600101906020018083116111c557829003601f168201915b50505050508152602001906001019061114a565b50505050815260200183600701805461120e90612784565b80601f016020809104026020016040519081016040528092919081815260200182805461123a90612784565b80156112875780601f1061125c57610100808354040283529160200191611287565b820191906000526020600020905b81548152906001019060200180831161126a57829003601f168201915b50505050508152602001828152602001836009018054806020026020016040519081016040528092919081815260200182805480156112ef57602002820191906000526020600020905b81546001600160a01b031681526001909101906020018083116112d1575b5050505050815260200183600a0154815260200183600b0154815260200183600c01805461131c90612784565b80601f016020809104026020016040519081016040528092919081815260200182805461134890612784565b80156113955780601f1061136a57610100808354040283529160200191611395565b820191906000526020600020905b81548152906001019060200180831161137857829003601f168201915b50505050508152508484815181106113af576113af61276e565b6020026020010181905250505080806113c790612753565b915050610f0c565b50919050565b6113dd611ded565b60035482106113fe5760405162461bcd60e51b81526004016102aa9061262b565b60026000838152602001908152602001600020604051806101a00160405290816000820154815260200160018201805461143790612784565b80601f016020809104026020016040519081016040528092919081815260200182805461146390612784565b80156114b05780601f10611485576101008083540402835291602001916114b0565b820191906000526020600020905b81548152906001019060200180831161149357829003601f168201915b505050505081526020016002820180546114c990612784565b80601f01602080910402602001604051908101604052809291908181526020018280546114f590612784565b80156115425780601f1061151757610100808354040283529160200191611542565b820191906000526020600020905b81548152906001019060200180831161152557829003601f168201915b5050505050815260200160038201548152602001600482015481526020016005820154815260200160068201805480602002602001604051908101604052809291908181526020016000905b8282101561163a5783829060005260206000200180546115ad90612784565b80601f01602080910402602001604051908101604052809291908181526020018280546115d990612784565b80156116265780601f106115fb57610100808354040283529160200191611626565b820191906000526020600020905b81548152906001019060200180831161160957829003601f168201915b50505050508152602001906001019061158e565b50505050815260200160078201805461165290612784565b80601f016020809104026020016040519081016040528092919081815260200182805461167e90612784565b80156116cb5780601f106116a0576101008083540402835291602001916116cb565b820191906000526020600020905b8154815290600101906020018083116116ae57829003601f168201915b505050505081526020016008820180548060200260200160405190810160405280929190818152602001828054801561172357602002820191906000526020600020905b81548152602001906001019080831161170f575b505050505081526020016009820180548060200260200160405190810160405280929190818152602001828054801561178557602002820191906000526020600020905b81546001600160a01b03168152600190910190602001808311611767575b50505050508152602001600a8201548152602001600b8201548152602001600c820180546117b290612784565b80601f01602080910402602001604051908101604052809291908181526020018280546117de90612784565b801561182b5780601f106118005761010080835404028352916020019161182b565b820191906000526020600020905b81548152906001019060200180831161180e57829003601f168201915b5050505050815250509050919050565b88600354811061185d5760405162461bcd60e51b81526004016102aa9061262b565b82841061187c5760405162461bcd60e51b81526004016102aa9061271f565b60008a81526002602090815260409091208a5190916118a29160018401918d0190611d10565b5088516118b890600283019060208c0190611d10565b506003810188905586516118d590600683019060208a0190611d94565b5085516118eb9060078301906020890190611d10565b50600a8101859055600b8101849055825161190f90600c8301906020860190611d10565b505050505050505050505050565b6002602052600090815260409020805460018201805491929161193f90612784565b80601f016020809104026020016040519081016040528092919081815260200182805461196b90612784565b80156119b85780601f1061198d576101008083540402835291602001916119b8565b820191906000526020600020905b81548152906001019060200180831161199b57829003601f168201915b5050505050908060020180546119cd90612784565b80601f01602080910402602001604051908101604052809291908181526020018280546119f990612784565b8015611a465780601f10611a1b57610100808354040283529160200191611a46565b820191906000526020600020905b815481529060010190602001808311611a2957829003601f168201915b505050505090806003015490806004015490806005015490806007018054611a6d90612784565b80601f0160208091040260200160405190810160405280929190818152602001828054611a9990612784565b8015611ae65780601f10611abb57610100808354040283529160200191611ae6565b820191906000526020600020905b815481529060010190602001808311611ac957829003601f168201915b50505050509080600a01549080600b01549080600c018054611b0790612784565b80601f0160208091040260200160405190810160405280929190818152602001828054611b3390612784565b8015611b805780601f10611b5557610100808354040283529160200191611b80565b820191906000526020600020905b815481529060010190602001808311611b6357829003601f168201915b505050505090508a565b60007f00000000000000000000000000000000000000000000000000000000000000006001600160a01b0316634000aea07f000000000000000000000000000000000000000000000000000000000000000084866000604051602001611bfa929190918252602082015260400190565b6040516020818303038152906040526040518463ffffffff1660e01b8152600401611c2793929190612801565b602060405180830381600087803b158015611c4157600080fd5b505af1158015611c55573d6000803e3d6000fd5b505050506040513d601f19601f82011682018060405250810190611c799190612831565b5060008381526020818152604080832054815180840188905280830185905230606082015260808082018390528351808303909101815260a090910190925281519183019190912086845292909152611cd39060016127d2565b60008581526020818152604091829020929092558051808301879052808201849052815180820383018152606090910190915280519101206103fd565b828054611d1c90612784565b90600052602060002090601f016020900481019282611d3e5760008555611d84565b82601f10611d5757805160ff1916838001178555611d84565b82800160010185558215611d84579182015b82811115611d84578251825591602001919060010190611d69565b50611d90929150611eca565b5090565b828054828255906000526020600020908101928215611de1579160200282015b82811115611de15782518051611dd1918491602090910190611d10565b5091602001919060010190611db4565b50611d90929150611edf565b604051806101a00160405280600081526020016060815260200160608152602001600081526020016000815260200160008152602001606081526020016060815260200160608152602001606081526020016000815260200160008152602001606081525090565b508054611e6190612784565b6000825580601f10611e71575050565b601f016020900490600052602060002090810190611e8f9190611eca565b50565b5080546000825590600052602060002090810190611e8f9190611edf565b5080546000825590600052602060002090810190611e8f91905b5b80821115611d905760008155600101611ecb565b80821115611d90576000611ef38282611e55565b50600101611edf565b60008060408385031215611f0f57600080fd5b50508035926020909101359150565b600060208284031215611f3057600080fd5b5035919050565b634e487b7160e01b600052604160045260246000fd5b604051601f8201601f191681016001600160401b0381118282101715611f7557611f75611f37565b604052919050565b60006001600160401b03831115611f9657611f96611f37565b611fa9601f8401601f1916602001611f4d565b9050828152838383011115611fbd57600080fd5b828260208301376000602084830101529392505050565b600060208284031215611fe657600080fd5b81356001600160401b03811115611ffc57600080fd5b8201601f8101841361200d57600080fd5b6103fd84823560208401611f7d565b600082601f83011261202d57600080fd5b610c3183833560208501611f7d565b600082601f83011261204d57600080fd5b813560206001600160401b038083111561206957612069611f37565b8260051b612078838201611f4d565b938452858101830193838101908886111561209257600080fd5b84880192505b858310156120ce578235848111156120b05760008081fd5b6120be8a87838c010161201c565b8352509184019190840190612098565b98975050505050505050565b600080600080600080600080610100898b0312156120f757600080fd5b88356001600160401b038082111561210e57600080fd5b61211a8c838d0161201c565b995060208b013591508082111561213057600080fd5b61213c8c838d0161201c565b985060408b0135975060608b013591508082111561215957600080fd5b6121658c838d0161203c565b965060808b013591508082111561217b57600080fd5b6121878c838d0161201c565b955060a08b0135945060c08b0135935060e08b01359150808211156121ab57600080fd5b506121b88b828c0161201c565b9150509295985092959890939650565b6000815180845260005b818110156121ee576020818501810151868301820152016121d2565b81811115612200576000602083870101525b50601f01601f19169290920160200192915050565b82151581526040602082015260006103fd60408301846121c8565b60006020828403121561224257600080fd5b81356001600160a01b0381168114610c3157600080fd5b600081518084526020808501808196508360051b8101915082860160005b858110156122a157828403895261228f8483516121c8565b98850198935090840190600101612277565b5091979650505050505050565b600081518084526020808501945080840160005b838110156122de578151875295820195908201906001016122c2565b509495945050505050565b600081518084526020808501945080840160005b838110156122de5781516001600160a01b0316875295820195908201906001016122fd565b60006101a0825184526020830151816020860152612342828601826121c8565b9150506040830151848203604086015261235c82826121c8565b915050606083015160608501526080830151608085015260a083015160a085015260c083015184820360c08601526123948282612259565b91505060e083015184820360e08601526123ae82826121c8565b91505061010080840151858303828701526123c983826122ae565b9250505061012080840151858303828701526123e583826122e9565b92505050610140808401518186015250610160808401518186015250610180808401518583038287015261241983826121c8565b9695505050505050565b6000602080830181845280855180835260408601915060408160051b870101925083870160005b8281101561247857603f19888603018452612466858351612322565b9450928501929085019060010161244a565b5092979650505050505050565b6001600160a01b0391909116815260200190565b602081526000610c316020830184612322565b60008060008060008060008060006101208a8c0312156124cb57600080fd5b8935985060208a01356001600160401b03808211156124e957600080fd5b6124f58d838e0161201c565b995060408c013591508082111561250b57600080fd5b6125178d838e0161201c565b985060608c0135975060808c013591508082111561253457600080fd5b6125408d838e0161203c565b965060a08c013591508082111561255657600080fd5b6125628d838e0161201c565b955060c08c0135945060e08c013593506101008c013591508082111561258757600080fd5b506125948c828d0161201c565b9150509295985092959850929598565b60006101408c83528060208401526125be8184018d6121c8565b905082810360408401526125d2818c6121c8565b90508960608401528860808401528760a084015282810360c08401526125f881886121c8565b90508560e08401528461010084015282810361012084015261261a81856121c8565b9d9c50505050505050505050505050565b602080825260179082015276111bdb985d1a5bdb88191bd95cc81b9bdd08195e1a5cdd604a1b604082015260600190565b80516001600160501b038116811461267357600080fd5b919050565b600080600080600060a0868803121561269057600080fd5b6126998661265c565b94506020860151935060408601519250606086015191506126bc6080870161265c565b90509295509295909350565b634e487b7160e01b600052601160045260246000fd5b60008160001904831182151516156126f8576126f86126c8565b500290565b60008261271a57634e487b7160e01b600052601260045260246000fd5b500490565b6020808252601a9082015279496e76616c696420737461727420616e6420656e642074696d6560301b604082015260600190565b6000600019821415612767576127676126c8565b5060010190565b634e487b7160e01b600052603260045260246000fd5b600181811c9082168061279857607f821691505b602082108114156113cf57634e487b7160e01b600052602260045260246000fd5b6000602082840312156127cb57600080fd5b5051919050565b600082198211156127e5576127e56126c8565b500190565b6000828210156127fc576127fc6126c8565b500390565b60018060a01b038416815282602082015260606040820152600061282860608301846121c8565b95945050505050565b60006020828403121561284357600080fd5b81518015158114610c3157600080fdfea2646970667358221220ab0208135116fd67e6ec29b8964d963d9462b848af2854a256791fdffab2584c64736f6c63430008090033","opcodes":"PUSH1 0xC0 PUSH1 0x40 MSTORE CALLVALUE DUP1 ISZERO PUSH3 0x11 JUMPI PUSH1 0x0 DUP1 REVERT JUMPDEST POP PUSH1 0x40 MLOAD PUSH3 0x29A7 CODESIZE SUB DUP1 PUSH3 0x29A7 DUP4 CODECOPY DUP2 ADD PUSH1 0x40 DUP2 SWAP1 MSTORE PUSH3 0x34 SWAP2 PUSH3 0x8D JUMP JUMPDEST PUSH1 0x1 PUSH1 0x1 PUSH1 0xA0 SHL SUB SWAP4 DUP5 AND PUSH1 0xA0 MSTORE SWAP2 DUP4 AND PUSH1 0x80 MSTORE PUSH1 0x4 DUP1 SLOAD PUSH1 0x1 PUSH1 0x1 PUSH1 0xA0 SHL SUB NOT AND SWAP5 SWAP1 SWAP4 AND SWAP4 SWAP1 SWAP4 OR SWAP1 SWAP2 SSTORE PUSH1 0x5 SWAP2 SWAP1 SWAP2 SSTORE PUSH1 0x6 SSTORE PUSH3 0xEA JUMP JUMPDEST DUP1 MLOAD PUSH1 0x1 PUSH1 0x1 PUSH1 0xA0 SHL SUB DUP2 AND DUP2 EQ PUSH3 0x88 JUMPI PUSH1 0x0 DUP1 REVERT JUMPDEST SWAP2 SWAP1 POP JUMP JUMPDEST PUSH1 0x0 DUP1 PUSH1 0x0 DUP1 PUSH1 0x0 PUSH1 0xA0 DUP7 DUP9 SUB SLT ISZERO PUSH3 0xA6 JUMPI PUSH1 0x0 DUP1 REVERT JUMPDEST PUSH3 0xB1 DUP7 PUSH3 0x70 JUMP JUMPDEST SWAP5 POP PUSH3 0xC1 PUSH1 0x20 DUP8 ADD PUSH3 0x70 JUMP JUMPDEST SWAP4 POP PUSH3 0xD1 PUSH1 0x40 DUP8 ADD PUSH3 0x70 JUMP JUMPDEST PUSH1 0x60 DUP8 ADD MLOAD PUSH1 0x80 SWAP1 SWAP8 ADD MLOAD SWAP6 SWAP9 SWAP5 SWAP8 POP SWAP6 SWAP5 SWAP4 SWAP3 POP POP POP JUMP JUMPDEST PUSH1 0x80 MLOAD PUSH1 0xA0 MLOAD PUSH2 0x2889 PUSH3 0x11E PUSH1 0x0 CODECOPY PUSH1 0x0 DUP2 DUP2 PUSH2 0xA99 ADD MSTORE PUSH2 0x1BBD ADD MSTORE PUSH1 0x0 DUP2 DUP2 PUSH2 0xB13 ADD MSTORE PUSH2 0x1B8E ADD MSTORE PUSH2 0x2889 PUSH1 0x0 RETURN INVALID PUSH1 0x80 PUSH1 0x40 MSTORE CALLVALUE DUP1 ISZERO PUSH2 0x10 JUMPI PUSH1 0x0 DUP1 REVERT JUMPDEST POP PUSH1 0x4 CALLDATASIZE LT PUSH2 0x107 JUMPI PUSH1 0x0 CALLDATALOAD PUSH1 0xE0 SHR DUP1 PUSH4 0x1CC4654D EQ PUSH2 0x10C JUMPI DUP1 PUSH4 0x2ABFAB4D EQ PUSH2 0x121 JUMPI DUP1 PUSH4 0x2CB8F793 EQ PUSH2 0x13D JUMPI DUP1 PUSH4 0x3197CBB6 EQ PUSH2 0x150 JUMPI DUP1 PUSH4 0x42619F66 EQ PUSH2 0x159 JUMPI DUP1 PUSH4 0x4585E33B EQ PUSH2 0x162 JUMPI DUP1 PUSH4 0x45F5D7AC EQ PUSH2 0x175 JUMPI DUP1 PUSH4 0x669C2F81 EQ PUSH2 0x17E JUMPI DUP1 PUSH4 0x6E04FF0D EQ PUSH2 0x191 JUMPI DUP1 PUSH4 0x732435B2 EQ PUSH2 0x1B7 JUMPI DUP1 PUSH4 0x785FFB37 EQ PUSH2 0x1D7 JUMPI DUP1 PUSH4 0x8DA5CB5B EQ PUSH2 0x1DF JUMPI DUP1 PUSH4 0x94985DDD EQ PUSH2 0x1ED JUMPI DUP1 PUSH4 0xB37217A4 EQ PUSH2 0x200 JUMPI DUP1 PUSH4 0xD87FFB70 EQ PUSH2 0x213 JUMPI DUP1 PUSH4 0xDEB0D883 EQ PUSH2 0x226 JUMPI DUP1 PUSH4 0xE25F8416 EQ PUSH2 0x239 JUMPI DUP1 PUSH4 0xE39FEA2D EQ PUSH2 0x241 JUMPI DUP1 PUSH4 0xEF07A81F EQ PUSH2 0x249 JUMPI DUP1 PUSH4 0xF12C754C EQ PUSH2 0x269 JUMPI DUP1 PUSH4 0xF8626AF8 EQ PUSH2 0x27C JUMPI JUMPDEST PUSH1 0x0 DUP1 REVERT JUMPDEST PUSH2 0x11F PUSH2 0x11A CALLDATASIZE PUSH1 0x4 PUSH2 0x1EFC JUMP JUMPDEST PUSH2 0x2A5 JUMP JUMPDEST STOP JUMPDEST PUSH2 0x12A PUSH1 0x3 SLOAD DUP2 JUMP JUMPDEST PUSH1 0x40 MLOAD SWAP1 DUP2 MSTORE PUSH1 0x20 ADD JUMPDEST PUSH1 0x40 MLOAD DUP1 SWAP2 SUB SWAP1 RETURN JUMPDEST PUSH2 0x12A PUSH2 0x14B CALLDATASIZE PUSH1 0x4 PUSH2 0x1F1E JUMP JUMPDEST PUSH2 0x34D JUMP JUMPDEST PUSH2 0x12A PUSH1 0x9 SLOAD DUP2 JUMP JUMPDEST PUSH2 0x12A PUSH1 0x7 SLOAD DUP2 JUMP JUMPDEST PUSH2 0x11F PUSH2 0x170 CALLDATASIZE PUSH1 0x4 PUSH2 0x1FD4 JUMP JUMPDEST PUSH2 0x405 JUMP JUMPDEST PUSH2 0x12A PUSH1 0x8 SLOAD DUP2 JUMP JUMPDEST PUSH2 0x11F PUSH2 0x18C CALLDATASIZE PUSH1 0x4 PUSH2 0x20DA JUMP JUMPDEST PUSH2 0x458 JUMP JUMPDEST PUSH2 0x1A9 PUSH2 0x19F CALLDATASIZE PUSH1 0x4 PUSH2 0x1FD4 JUMP JUMPDEST PUSH1 0x8 SLOAD PUSH1 0x64 GT ISZERO SWAP2 JUMP JUMPDEST PUSH1 0x40 MLOAD PUSH2 0x134 SWAP3 SWAP2 SWAP1 PUSH2 0x2215 JUMP JUMPDEST PUSH2 0x1CA PUSH2 0x1C5 CALLDATASIZE PUSH1 0x4 PUSH2 0x2230 JUMP JUMPDEST PUSH2 0x53E JUMP JUMPDEST PUSH1 0x40 MLOAD PUSH2 0x134 SWAP2 SWAP1 PUSH2 0x2423 JUMP JUMPDEST PUSH2 0x12A PUSH1 0x64 DUP2 JUMP JUMPDEST CALLER PUSH1 0x40 MLOAD PUSH2 0x134 SWAP2 SWAP1 PUSH2 0x2485 JUMP JUMPDEST PUSH2 0x11F PUSH2 0x1FB CALLDATASIZE PUSH1 0x4 PUSH2 0x1EFC JUMP JUMPDEST PUSH2 0xA8E JUMP JUMPDEST PUSH2 0x12A PUSH2 0x20E CALLDATASIZE PUSH1 0x4 PUSH2 0x1F1E JUMP JUMPDEST PUSH2 0xB0C JUMP JUMPDEST PUSH2 0x11F PUSH2 0x221 CALLDATASIZE PUSH1 0x4 PUSH2 0x1EFC JUMP JUMPDEST PUSH2 0xC38 JUMP JUMPDEST PUSH2 0x11F PUSH2 0x234 CALLDATASIZE PUSH1 0x4 PUSH2 0x1F1E JUMP JUMPDEST PUSH2 0xDEE JUMP JUMPDEST PUSH2 0x1CA PUSH2 0xEAF JUMP JUMPDEST PUSH2 0x12A PUSH1 0x32 DUP2 JUMP JUMPDEST PUSH2 0x25C PUSH2 0x257 CALLDATASIZE PUSH1 0x4 PUSH2 0x1F1E JUMP JUMPDEST PUSH2 0x13D5 JUMP JUMPDEST PUSH1 0x40 MLOAD PUSH2 0x134 SWAP2 SWAP1 PUSH2 0x2499 JUMP JUMPDEST PUSH2 0x11F PUSH2 0x277 CALLDATASIZE PUSH1 0x4 PUSH2 0x24AC JUMP JUMPDEST PUSH2 0x183B JUMP JUMPDEST PUSH2 0x28F PUSH2 0x28A CALLDATASIZE PUSH1 0x4 PUSH2 0x1F1E JUMP JUMPDEST PUSH2 0x191D JUMP JUMPDEST PUSH1 0x40 MLOAD PUSH2 0x134 SWAP11 SWAP10 SWAP9 SWAP8 SWAP7 SWAP6 SWAP5 SWAP4 SWAP3 SWAP2 SWAP1 PUSH2 0x25A4 JUMP JUMPDEST PUSH2 0x2B3 JUMP JUMPDEST PUSH1 0x40 MLOAD DUP1 SWAP2 SUB SWAP1 REVERT JUMPDEST DUP2 PUSH1 0x3 SLOAD DUP2 LT PUSH2 0x2D5 JUMPI PUSH1 0x40 MLOAD PUSH3 0x461BCD PUSH1 0xE5 SHL DUP2 MSTORE PUSH1 0x4 ADD PUSH2 0x2AA SWAP1 PUSH2 0x262B JUMP JUMPDEST PUSH1 0x0 DUP4 DUP2 MSTORE PUSH1 0x2 PUSH1 0x20 MSTORE PUSH1 0x40 SWAP1 KECCAK256 PUSH1 0xA DUP2 ADD SLOAD DUP4 GT PUSH2 0x342 JUMPI PUSH1 0x40 MLOAD PUSH3 0x461BCD PUSH1 0xE5 SHL DUP2 MSTORE PUSH1 0x20 PUSH1 0x4 DUP3 ADD MSTORE PUSH1 0x23 PUSH1 0x24 DUP3 ADD MSTORE PUSH32 0x456E642074696D652073686F756C642062652061667465722073746172742074 PUSH1 0x44 DUP3 ADD MSTORE PUSH3 0x696D65 PUSH1 0xE8 SHL PUSH1 0x64 DUP3 ADD MSTORE PUSH1 0x84 ADD PUSH2 0x2AA JUMP JUMPDEST PUSH1 0xB ADD SWAP2 SWAP1 SWAP2 SSTORE POP POP JUMP JUMPDEST PUSH1 0x0 DUP2 DUP2 MSTORE PUSH1 0x2 PUSH1 0x20 MSTORE PUSH1 0x40 DUP1 DUP3 KECCAK256 PUSH1 0x4 DUP1 SLOAD DUP4 MLOAD PUSH4 0x3FABE5A3 PUSH1 0xE2 SHL DUP2 MSTORE SWAP4 MLOAD SWAP3 SWAP4 DUP6 SWAP4 PUSH1 0x1 PUSH1 0x1 PUSH1 0xA0 SHL SUB SWAP1 SWAP3 AND SWAP3 PUSH4 0xFEAF968C SWAP3 DUP3 DUP3 ADD SWAP3 PUSH1 0xA0 SWAP3 SWAP1 DUP3 SWAP1 SUB ADD DUP2 DUP7 DUP1 EXTCODESIZE ISZERO DUP1 ISZERO PUSH2 0x3A0 JUMPI PUSH1 0x0 DUP1 REVERT JUMPDEST POP GAS STATICCALL ISZERO DUP1 ISZERO PUSH2 0x3B4 JUMPI RETURNDATASIZE PUSH1 0x0 DUP1 RETURNDATACOPY RETURNDATASIZE PUSH1 0x0 REVERT JUMPDEST POP POP POP POP PUSH1 0x40 MLOAD RETURNDATASIZE PUSH1 0x1F NOT PUSH1 0x1F DUP3 ADD AND DUP3 ADD DUP1 PUSH1 0x40 MSTORE POP DUP2 ADD SWAP1 PUSH2 0x3D8 SWAP2 SWAP1 PUSH2 0x2678 JUMP JUMPDEST POP POP POP SWAP2 POP POP PUSH4 0x5F5E100 DUP2 DUP4 PUSH1 0x4 ADD SLOAD PUSH2 0x3F3 SWAP2 SWAP1 PUSH2 0x26DE JUMP JUMPDEST PUSH2 0x3FD SWAP2 SWAP1 PUSH2 0x26FD JUMP JUMPDEST SWAP5 SWAP4 POP POP POP POP JUMP JUMPDEST PUSH1 0x64 PUSH1 0x8 SLOAD LT ISZERO PUSH2 0x450 JUMPI PUSH1 0x40 MLOAD PUSH3 0x461BCD PUSH1 0xE5 SHL DUP2 MSTORE PUSH1 0x20 PUSH1 0x4 DUP3 ADD MSTORE PUSH1 0x15 PUSH1 0x24 DUP3 ADD MSTORE PUSH21 0x151A1C995CDA1BDB19081B9BDD081C995858DA1959 PUSH1 0x5A SHL PUSH1 0x44 DUP3 ADD MSTORE PUSH1 0x64 ADD PUSH2 0x2AA JUMP JUMPDEST POP PUSH1 0x0 PUSH1 0x8 SSTORE JUMP JUMPDEST DUP2 DUP4 LT PUSH2 0x477 JUMPI PUSH1 0x40 MLOAD PUSH3 0x461BCD PUSH1 0xE5 SHL DUP2 MSTORE PUSH1 0x4 ADD PUSH2 0x2AA SWAP1 PUSH2 0x271F JUMP JUMPDEST PUSH1 0x3 SLOAD PUSH1 0x0 DUP2 DUP2 MSTORE PUSH1 0x2 PUSH1 0x20 SWAP1 DUP2 MSTORE PUSH1 0x40 SWAP1 SWAP2 KECCAK256 SWAP2 DUP3 SSTORE DUP10 MLOAD PUSH2 0x4A2 SWAP2 PUSH1 0x1 DUP5 ADD SWAP2 SWAP1 DUP13 ADD SWAP1 PUSH2 0x1D10 JUMP JUMPDEST POP DUP8 MLOAD PUSH2 0x4B8 SWAP1 PUSH1 0x2 DUP4 ADD SWAP1 PUSH1 0x20 DUP12 ADD SWAP1 PUSH2 0x1D10 JUMP JUMPDEST POP PUSH1 0x3 DUP2 ADD DUP8 SWAP1 SSTORE PUSH1 0x0 PUSH1 0x4 DUP3 ADD SSTORE PUSH1 0x5 DUP2 ADD DUP8 SWAP1 SSTORE DUP6 MLOAD PUSH2 0x4E3 SWAP1 PUSH1 0x6 DUP4 ADD SWAP1 PUSH1 0x20 DUP10 ADD SWAP1 PUSH2 0x1D94 JUMP JUMPDEST POP DUP5 MLOAD PUSH2 0x4F9 SWAP1 PUSH1 0x7 DUP4 ADD SWAP1 PUSH1 0x20 DUP9 ADD SWAP1 PUSH2 0x1D10 JUMP JUMPDEST POP PUSH1 0xA DUP2 ADD DUP5 SWAP1 SSTORE PUSH1 0xB DUP2 ADD DUP4 SWAP1 SSTORE DUP2 MLOAD PUSH2 0x51D SWAP1 PUSH1 0xC DUP4 ADD SWAP1 PUSH1 0x20 DUP6 ADD SWAP1 PUSH2 0x1D10 JUMP JUMPDEST POP PUSH1 0x3 DUP1 SLOAD SWAP1 PUSH1 0x0 PUSH2 0x52E DUP4 PUSH2 0x2753 JUMP JUMPDEST SWAP2 SWAP1 POP SSTORE POP POP POP POP POP POP POP POP POP POP JUMP JUMPDEST PUSH1 0x1 PUSH1 0x1 PUSH1 0xA0 SHL SUB DUP2 AND PUSH1 0x0 SWAP1 DUP2 MSTORE PUSH1 0x1 PUSH1 0x20 SWAP1 DUP2 MSTORE PUSH1 0x40 DUP1 DUP4 KECCAK256 DUP1 SLOAD DUP3 MLOAD DUP2 DUP6 MUL DUP2 ADD DUP6 ADD SWAP1 SWAP4 MSTORE DUP1 DUP4 MSTORE PUSH1 0x60 SWAP5 SWAP4 DUP4 ADD DUP3 DUP3 DUP1 ISZERO PUSH2 0x59D JUMPI PUSH1 0x20 MUL DUP3 ADD SWAP2 SWAP1 PUSH1 0x0 MSTORE PUSH1 0x20 PUSH1 0x0 KECCAK256 SWAP1 JUMPDEST DUP2 SLOAD DUP2 MSTORE PUSH1 0x20 ADD SWAP1 PUSH1 0x1 ADD SWAP1 DUP1 DUP4 GT PUSH2 0x589 JUMPI JUMPDEST POP POP POP POP POP SWAP1 POP PUSH1 0x0 DUP2 MLOAD PUSH1 0x1 PUSH1 0x1 PUSH1 0x40 SHL SUB DUP2 GT ISZERO PUSH2 0x5BF JUMPI PUSH2 0x5BF PUSH2 0x1F37 JUMP JUMPDEST PUSH1 0x40 MLOAD SWAP1 DUP1 DUP3 MSTORE DUP1 PUSH1 0x20 MUL PUSH1 0x20 ADD DUP3 ADD PUSH1 0x40 MSTORE DUP1 ISZERO PUSH2 0x5F8 JUMPI DUP2 PUSH1 0x20 ADD JUMPDEST PUSH2 0x5E5 PUSH2 0x1DED JUMP JUMPDEST DUP2 MSTORE PUSH1 0x20 ADD SWAP1 PUSH1 0x1 SWAP1 SUB SWAP1 DUP2 PUSH2 0x5DD JUMPI SWAP1 POP JUMPDEST POP SWAP1 POP PUSH1 0x0 JUMPDEST DUP3 MLOAD DUP2 LT ISZERO PUSH2 0xA86 JUMPI PUSH1 0x2 PUSH1 0x0 DUP5 DUP4 DUP2 MLOAD DUP2 LT PUSH2 0x61D JUMPI PUSH2 0x61D PUSH2 0x276E JUMP JUMPDEST PUSH1 0x20 MUL PUSH1 0x20 ADD ADD MLOAD DUP2 MSTORE PUSH1 0x20 ADD SWAP1 DUP2 MSTORE PUSH1 0x20 ADD PUSH1 0x0 KECCAK256 PUSH1 0x40 MLOAD DUP1 PUSH2 0x1A0 ADD PUSH1 0x40 MSTORE SWAP1 DUP2 PUSH1 0x0 DUP3 ADD SLOAD DUP2 MSTORE PUSH1 0x20 ADD PUSH1 0x1 DUP3 ADD DUP1 SLOAD PUSH2 0x659 SWAP1 PUSH2 0x2784 JUMP JUMPDEST DUP1 PUSH1 0x1F ADD PUSH1 0x20 DUP1 SWAP2 DIV MUL PUSH1 0x20 ADD PUSH1 0x40 MLOAD SWAP1 DUP2 ADD PUSH1 0x40 MSTORE DUP1 SWAP3 SWAP2 SWAP1 DUP2 DUP2 MSTORE PUSH1 0x20 ADD DUP3 DUP1 SLOAD PUSH2 0x685 SWAP1 PUSH2 0x2784 JUMP JUMPDEST DUP1 ISZERO PUSH2 0x6D2 JUMPI DUP1 PUSH1 0x1F LT PUSH2 0x6A7 JUMPI PUSH2 0x100 DUP1 DUP4 SLOAD DIV MUL DUP4 MSTORE SWAP2 PUSH1 0x20 ADD SWAP2 PUSH2 0x6D2 JUMP JUMPDEST DUP3 ADD SWAP2 SWAP1 PUSH1 0x0 MSTORE PUSH1 0x20 PUSH1 0x0 KECCAK256 SWAP1 JUMPDEST DUP2 SLOAD DUP2 MSTORE SWAP1 PUSH1 0x1 ADD SWAP1 PUSH1 0x20 ADD DUP1 DUP4 GT PUSH2 0x6B5 JUMPI DUP3 SWAP1 SUB PUSH1 0x1F AND DUP3 ADD SWAP2 JUMPDEST POP POP POP POP POP DUP2 MSTORE PUSH1 0x20 ADD PUSH1 0x2 DUP3 ADD DUP1 SLOAD PUSH2 0x6EB SWAP1 PUSH2 0x2784 JUMP JUMPDEST DUP1 PUSH1 0x1F ADD PUSH1 0x20 DUP1 SWAP2 DIV MUL PUSH1 0x20 ADD PUSH1 0x40 MLOAD SWAP1 DUP2 ADD PUSH1 0x40 MSTORE DUP1 SWAP3 SWAP2 SWAP1 DUP2 DUP2 MSTORE PUSH1 0x20 ADD DUP3 DUP1 SLOAD PUSH2 0x717 SWAP1 PUSH2 0x2784 JUMP JUMPDEST DUP1 ISZERO PUSH2 0x764 JUMPI DUP1 PUSH1 0x1F LT PUSH2 0x739 JUMPI PUSH2 0x100 DUP1 DUP4 SLOAD DIV MUL DUP4 MSTORE SWAP2 PUSH1 0x20 ADD SWAP2 PUSH2 0x764 JUMP JUMPDEST DUP3 ADD SWAP2 SWAP1 PUSH1 0x0 MSTORE PUSH1 0x20 PUSH1 0x0 KECCAK256 SWAP1 JUMPDEST DUP2 SLOAD DUP2 MSTORE SWAP1 PUSH1 0x1 ADD SWAP1 PUSH1 0x20 ADD DUP1 DUP4 GT PUSH2 0x747 JUMPI DUP3 SWAP1 SUB PUSH1 0x1F AND DUP3 ADD SWAP2 JUMPDEST POP POP POP POP POP DUP2 MSTORE PUSH1 0x20 ADD PUSH1 0x3 DUP3 ADD SLOAD DUP2 MSTORE PUSH1 0x20 ADD PUSH1 0x4 DUP3 ADD SLOAD DUP2 MSTORE PUSH1 0x20 ADD PUSH1 0x5 DUP3 ADD SLOAD DUP2 MSTORE PUSH1 0x20 ADD PUSH1 0x6 DUP3 ADD DUP1 SLOAD DUP1 PUSH1 0x20 MUL PUSH1 0x20 ADD PUSH1 0x40 MLOAD SWAP1 DUP2 ADD PUSH1 0x40 MSTORE DUP1 SWAP3 SWAP2 SWAP1 DUP2 DUP2 MSTORE PUSH1 0x20 ADD PUSH1 0x0 SWAP1 JUMPDEST DUP3 DUP3 LT ISZERO PUSH2 0x85C JUMPI DUP4 DUP3 SWAP1 PUSH1 0x0 MSTORE PUSH1 0x20 PUSH1 0x0 KECCAK256 ADD DUP1 SLOAD PUSH2 0x7CF SWAP1 PUSH2 0x2784 JUMP JUMPDEST DUP1 PUSH1 0x1F ADD PUSH1 0x20 DUP1 SWAP2 DIV MUL PUSH1 0x20 ADD PUSH1 0x40 MLOAD SWAP1 DUP2 ADD PUSH1 0x40 MSTORE DUP1 SWAP3 SWAP2 SWAP1 DUP2 DUP2 MSTORE PUSH1 0x20 ADD DUP3 DUP1 SLOAD PUSH2 0x7FB SWAP1 PUSH2 0x2784 JUMP JUMPDEST DUP1 ISZERO PUSH2 0x848 JUMPI DUP1 PUSH1 0x1F LT PUSH2 0x81D JUMPI PUSH2 0x100 DUP1 DUP4 SLOAD DIV MUL DUP4 MSTORE SWAP2 PUSH1 0x20 ADD SWAP2 PUSH2 0x848 JUMP JUMPDEST DUP3 ADD SWAP2 SWAP1 PUSH1 0x0 MSTORE PUSH1 0x20 PUSH1 0x0 KECCAK256 SWAP1 JUMPDEST DUP2 SLOAD DUP2 MSTORE SWAP1 PUSH1 0x1 ADD SWAP1 PUSH1 0x20 ADD DUP1 DUP4 GT PUSH2 0x82B JUMPI DUP3 SWAP1 SUB PUSH1 0x1F AND DUP3 ADD SWAP2 JUMPDEST POP POP POP POP POP DUP2 MSTORE PUSH1 0x20 ADD SWAP1 PUSH1 0x1 ADD SWAP1 PUSH2 0x7B0 JUMP JUMPDEST POP POP POP POP DUP2 MSTORE PUSH1 0x20 ADD PUSH1 0x7 DUP3 ADD DUP1 SLOAD PUSH2 0x874 SWAP1 PUSH2 0x2784 JUMP JUMPDEST DUP1 PUSH1 0x1F ADD PUSH1 0x20 DUP1 SWAP2 DIV MUL PUSH1 0x20 ADD PUSH1 0x40 MLOAD SWAP1 DUP2 ADD PUSH1 0x40 MSTORE DUP1 SWAP3 SWAP2 SWAP1 DUP2 DUP2 MSTORE PUSH1 0x20 ADD DUP3 DUP1 SLOAD PUSH2 0x8A0 SWAP1 PUSH2 0x2784 JUMP JUMPDEST DUP1 ISZERO PUSH2 0x8ED JUMPI DUP1 PUSH1 0x1F LT PUSH2 0x8C2 JUMPI PUSH2 0x100 DUP1 DUP4 SLOAD DIV MUL DUP4 MSTORE SWAP2 PUSH1 0x20 ADD SWAP2 PUSH2 0x8ED JUMP JUMPDEST DUP3 ADD SWAP2 SWAP1 PUSH1 0x0 MSTORE PUSH1 0x20 PUSH1 0x0 KECCAK256 SWAP1 JUMPDEST DUP2 SLOAD DUP2 MSTORE SWAP1 PUSH1 0x1 ADD SWAP1 PUSH1 0x20 ADD DUP1 DUP4 GT PUSH2 0x8D0 JUMPI DUP3 SWAP1 SUB PUSH1 0x1F AND DUP3 ADD SWAP2 JUMPDEST POP POP POP POP POP DUP2 MSTORE PUSH1 0x20 ADD PUSH1 0x8 DUP3 ADD DUP1 SLOAD DUP1 PUSH1 0x20 MUL PUSH1 0x20 ADD PUSH1 0x40 MLOAD SWAP1 DUP2 ADD PUSH1 0x40 MSTORE DUP1 SWAP3 SWAP2 SWAP1 DUP2 DUP2 MSTORE PUSH1 0x20 ADD DUP3 DUP1 SLOAD DUP1 ISZERO PUSH2 0x945 JUMPI PUSH1 0x20 MUL DUP3 ADD SWAP2 SWAP1 PUSH1 0x0 MSTORE PUSH1 0x20 PUSH1 0x0 KECCAK256 SWAP1 JUMPDEST DUP2 SLOAD DUP2 MSTORE PUSH1 0x20 ADD SWAP1 PUSH1 0x1 ADD SWAP1 DUP1 DUP4 GT PUSH2 0x931 JUMPI JUMPDEST POP POP POP POP POP DUP2 MSTORE PUSH1 0x20 ADD PUSH1 0x9 DUP3 ADD DUP1 SLOAD DUP1 PUSH1 0x20 MUL PUSH1 0x20 ADD PUSH1 0x40 MLOAD SWAP1 DUP2 ADD PUSH1 0x40 MSTORE DUP1 SWAP3 SWAP2 SWAP1 DUP2 DUP2 MSTORE PUSH1 0x20 ADD DUP3 DUP1 SLOAD DUP1 ISZERO PUSH2 0x9A7 JUMPI PUSH1 0x20 MUL DUP3 ADD SWAP2 SWAP1 PUSH1 0x0 MSTORE PUSH1 0x20 PUSH1 0x0 KECCAK256 SWAP1 JUMPDEST DUP2 SLOAD PUSH1 0x1 PUSH1 0x1 PUSH1 0xA0 SHL SUB AND DUP2 MSTORE PUSH1 0x1 SWAP1 SWAP2 ADD SWAP1 PUSH1 0x20 ADD DUP1 DUP4 GT PUSH2 0x989 JUMPI JUMPDEST POP POP POP POP POP DUP2 MSTORE PUSH1 0x20 ADD PUSH1 0xA DUP3 ADD SLOAD DUP2 MSTORE PUSH1 0x20 ADD PUSH1 0xB DUP3 ADD SLOAD DUP2 MSTORE PUSH1 0x20 ADD PUSH1 0xC DUP3 ADD DUP1 SLOAD PUSH2 0x9D4 SWAP1 PUSH2 0x2784 JUMP JUMPDEST DUP1 PUSH1 0x1F ADD PUSH1 0x20 DUP1 SWAP2 DIV MUL PUSH1 0x20 ADD PUSH1 0x40 MLOAD SWAP1 DUP2 ADD PUSH1 0x40 MSTORE DUP1 SWAP3 SWAP2 SWAP1 DUP2 DUP2 MSTORE PUSH1 0x20 ADD DUP3 DUP1 SLOAD PUSH2 0xA00 SWAP1 PUSH2 0x2784 JUMP JUMPDEST DUP1 ISZERO PUSH2 0xA4D JUMPI DUP1 PUSH1 0x1F LT PUSH2 0xA22 JUMPI PUSH2 0x100 DUP1 DUP4 SLOAD DIV MUL DUP4 MSTORE SWAP2 PUSH1 0x20 ADD SWAP2 PUSH2 0xA4D JUMP JUMPDEST DUP3 ADD SWAP2 SWAP1 PUSH1 0x0 MSTORE PUSH1 0x20 PUSH1 0x0 KECCAK256 SWAP1 JUMPDEST DUP2 SLOAD DUP2 MSTORE SWAP1 PUSH1 0x1 ADD SWAP1 PUSH1 0x20 ADD DUP1 DUP4 GT PUSH2 0xA30 JUMPI DUP3 SWAP1 SUB PUSH1 0x1F AND DUP3 ADD SWAP2 JUMPDEST POP POP POP POP POP DUP2 MSTORE POP POP DUP3 DUP3 DUP2 MLOAD DUP2 LT PUSH2 0xA68 JUMPI PUSH2 0xA68 PUSH2 0x276E JUMP JUMPDEST PUSH1 0x20 MUL PUSH1 0x20 ADD ADD DUP2 SWAP1 MSTORE POP DUP1 DUP1 PUSH2 0xA7E SWAP1 PUSH2 0x2753 JUMP JUMPDEST SWAP2 POP POP PUSH2 0x5FE JUMP JUMPDEST POP SWAP4 SWAP3 POP POP POP JUMP JUMPDEST CALLER PUSH1 0x1 PUSH1 0x1 PUSH1 0xA0 SHL SUB PUSH32 0x0 AND EQ PUSH2 0xB06 JUMPI PUSH1 0x40 MLOAD PUSH3 0x461BCD PUSH1 0xE5 SHL DUP2 MSTORE PUSH1 0x20 PUSH1 0x4 DUP3 ADD MSTORE PUSH1 0x1F PUSH1 0x24 DUP3 ADD MSTORE PUSH32 0x4F6E6C7920565246436F6F7264696E61746F722063616E2066756C66696C6C00 PUSH1 0x44 DUP3 ADD MSTORE PUSH1 0x64 ADD PUSH2 0x2AA JUMP JUMPDEST PUSH1 0x7 SSTORE POP JUMP JUMPDEST PUSH1 0x0 PUSH1 0x6 SLOAD PUSH32 0x0 PUSH1 0x1 PUSH1 0x1 PUSH1 0xA0 SHL SUB AND PUSH4 0x70A08231 ADDRESS PUSH1 0x40 MLOAD DUP3 PUSH4 0xFFFFFFFF AND PUSH1 0xE0 SHL DUP2 MSTORE PUSH1 0x4 ADD PUSH2 0xB5D SWAP2 SWAP1 PUSH2 0x2485 JUMP JUMPDEST PUSH1 0x20 PUSH1 0x40 MLOAD DUP1 DUP4 SUB DUP2 DUP7 DUP1 EXTCODESIZE ISZERO DUP1 ISZERO PUSH2 0xB75 JUMPI PUSH1 0x0 DUP1 REVERT JUMPDEST POP GAS STATICCALL ISZERO DUP1 ISZERO PUSH2 0xB89 JUMPI RETURNDATASIZE PUSH1 0x0 DUP1 RETURNDATACOPY RETURNDATASIZE PUSH1 0x0 REVERT JUMPDEST POP POP POP POP PUSH1 0x40 MLOAD RETURNDATASIZE PUSH1 0x1F NOT PUSH1 0x1F DUP3 ADD AND DUP3 ADD DUP1 PUSH1 0x40 MSTORE POP DUP2 ADD SWAP1 PUSH2 0xBAD SWAP2 SWAP1 PUSH2 0x27B9 JUMP JUMPDEST LT ISZERO PUSH2 0xC13 JUMPI PUSH1 0x40 MLOAD PUSH3 0x461BCD PUSH1 0xE5 SHL DUP2 MSTORE PUSH1 0x20 PUSH1 0x4 DUP3 ADD MSTORE PUSH1 0x2F PUSH1 0x24 DUP3 ADD MSTORE PUSH32 0x4E6F7420656E6F756768204C494E4B20746F6B656E7320746F20726571756573 PUSH1 0x44 DUP3 ADD MSTORE PUSH15 0x3A103930B73237B690373AB6B132B9 PUSH1 0x89 SHL PUSH1 0x64 DUP3 ADD MSTORE PUSH1 0x84 ADD PUSH2 0x2AA JUMP JUMPDEST PUSH1 0x0 DUP3 DUP2 MSTORE PUSH1 0x2 PUSH1 0x20 MSTORE PUSH1 0x40 SWAP1 KECCAK256 PUSH1 0x5 SLOAD PUSH1 0x6 SLOAD PUSH2 0xC31 SWAP2 SWAP1 PUSH2 0x1B8A JUMP JUMPDEST SWAP4 SWAP3 POP POP POP JUMP JUMPDEST DUP2 PUSH1 0x3 SLOAD DUP2 LT PUSH2 0xC5A JUMPI PUSH1 0x40 MLOAD PUSH3 0x461BCD PUSH1 0xE5 SHL DUP2 MSTORE PUSH1 0x4 ADD PUSH2 0x2AA SWAP1 PUSH2 0x262B JUMP JUMPDEST PUSH1 0x0 DUP4 DUP2 MSTORE PUSH1 0x2 PUSH1 0x20 MSTORE PUSH1 0x40 SWAP1 KECCAK256 PUSH1 0xA DUP2 ADD SLOAD TIMESTAMP LT ISZERO PUSH2 0xCC6 JUMPI PUSH1 0x40 MLOAD PUSH3 0x461BCD PUSH1 0xE5 SHL DUP2 MSTORE PUSH1 0x20 PUSH1 0x4 DUP3 ADD MSTORE PUSH1 0x21 PUSH1 0x24 DUP3 ADD MSTORE PUSH32 0x446F6E6174696F6E2063616D706169676E20686173206E6F7420737461727465 PUSH1 0x44 DUP3 ADD MSTORE PUSH1 0x19 PUSH1 0xFA SHL PUSH1 0x64 DUP3 ADD MSTORE PUSH1 0x84 ADD PUSH2 0x2AA JUMP JUMPDEST DUP1 PUSH1 0xB ADD SLOAD TIMESTAMP GT ISZERO PUSH2 0xD18 JUMPI PUSH1 0x40 MLOAD PUSH3 0x461BCD PUSH1 0xE5 SHL DUP2 MSTORE PUSH1 0x20 PUSH1 0x4 DUP3 ADD MSTORE PUSH1 0x1B PUSH1 0x24 DUP3 ADD MSTORE PUSH27 0x111BDB985D1A5BDB8818D85B5C185A59DB881A185CC8195B991959 PUSH1 0x2A SHL PUSH1 0x44 DUP3 ADD MSTORE PUSH1 0x64 ADD PUSH2 0x2AA JUMP JUMPDEST DUP3 DUP2 PUSH1 0x4 ADD PUSH1 0x0 DUP3 DUP3 SLOAD PUSH2 0xD2C SWAP2 SWAP1 PUSH2 0x27D2 JUMP JUMPDEST SWAP1 SWAP2 SSTORE POP POP PUSH1 0x4 DUP2 ADD SLOAD PUSH1 0x3 DUP3 ADD SLOAD PUSH2 0xD45 SWAP2 SWAP1 PUSH2 0x27EA JUMP JUMPDEST PUSH1 0x5 DUP3 ADD SSTORE PUSH1 0x8 DUP2 ADD DUP1 SLOAD PUSH1 0x1 DUP2 DUP2 ADD DUP4 SSTORE PUSH1 0x0 SWAP3 DUP4 MSTORE PUSH1 0x20 DUP1 DUP5 KECCAK256 SWAP1 SWAP3 ADD DUP7 SWAP1 SSTORE PUSH1 0x9 DUP5 ADD DUP1 SLOAD DUP1 DUP4 ADD DUP3 SSTORE SWAP1 DUP5 MSTORE DUP3 DUP5 KECCAK256 ADD DUP1 SLOAD PUSH1 0x1 PUSH1 0x1 PUSH1 0xA0 SHL SUB NOT AND CALLER SWAP1 DUP2 OR SWAP1 SWAP2 SSTORE DUP4 MSTORE DUP1 DUP3 MSTORE PUSH1 0x40 DUP4 KECCAK256 DUP1 SLOAD SWAP2 DUP3 ADD DUP2 SSTORE DUP4 MSTORE SWAP2 KECCAK256 ADD DUP5 SWAP1 SSTORE PUSH1 0x3 DUP2 ADD SLOAD PUSH1 0x64 SWAP1 PUSH2 0xDB8 SWAP1 PUSH1 0x32 SWAP1 PUSH2 0x26DE JUMP JUMPDEST PUSH2 0xDC2 SWAP2 SWAP1 PUSH2 0x26FD JUMP JUMPDEST DUP2 PUSH1 0x4 ADD SLOAD LT PUSH2 0xDE8 JUMPI DUP1 PUSH1 0x4 ADD SLOAD PUSH1 0x8 PUSH1 0x0 DUP3 DUP3 SLOAD PUSH2 0xDE2 SWAP2 SWAP1 PUSH2 0x27D2 JUMP JUMPDEST SWAP1 SWAP2 SSTORE POP POP JUMPDEST POP POP POP POP JUMP JUMPDEST DUP1 PUSH1 0x3 SLOAD DUP2 LT PUSH2 0xE10 JUMPI PUSH1 0x40 MLOAD PUSH3 0x461BCD PUSH1 0xE5 SHL DUP2 MSTORE PUSH1 0x4 ADD PUSH2 0x2AA SWAP1 PUSH2 0x262B JUMP JUMPDEST PUSH1 0x0 DUP3 DUP2 MSTORE PUSH1 0x2 PUSH1 0x20 MSTORE PUSH1 0x40 DUP2 KECCAK256 DUP2 DUP2 SSTORE SWAP1 PUSH2 0xE2F PUSH1 0x1 DUP4 ADD DUP3 PUSH2 0x1E55 JUMP JUMPDEST PUSH2 0xE3D PUSH1 0x2 DUP4 ADD PUSH1 0x0 PUSH2 0x1E55 JUMP JUMPDEST PUSH1 0x3 DUP3 ADD PUSH1 0x0 SWAP1 SSTORE PUSH1 0x4 DUP3 ADD PUSH1 0x0 SWAP1 SSTORE PUSH1 0x5 DUP3 ADD PUSH1 0x0 SWAP1 SSTORE PUSH1 0x6 DUP3 ADD PUSH1 0x0 PUSH2 0xE65 SWAP2 SWAP1 PUSH2 0x1E92 JUMP JUMPDEST PUSH2 0xE73 PUSH1 0x7 DUP4 ADD PUSH1 0x0 PUSH2 0x1E55 JUMP JUMPDEST PUSH2 0xE81 PUSH1 0x8 DUP4 ADD PUSH1 0x0 PUSH2 0x1EB0 JUMP JUMPDEST PUSH2 0xE8F PUSH1 0x9 DUP4 ADD PUSH1 0x0 PUSH2 0x1EB0 JUMP JUMPDEST PUSH1 0xA DUP3 ADD PUSH1 0x0 SWAP1 SSTORE PUSH1 0xB DUP3 ADD PUSH1 0x0 SWAP1 SSTORE PUSH1 0xC DUP3 ADD PUSH1 0x0 PUSH2 0xDE8 SWAP2 SWAP1 PUSH2 0x1E55 JUMP JUMPDEST PUSH1 0x60 PUSH1 0x0 PUSH1 0x3 SLOAD PUSH1 0x1 PUSH1 0x1 PUSH1 0x40 SHL SUB DUP2 GT ISZERO PUSH2 0xECD JUMPI PUSH2 0xECD PUSH2 0x1F37 JUMP JUMPDEST PUSH1 0x40 MLOAD SWAP1 DUP1 DUP3 MSTORE DUP1 PUSH1 0x20 MUL PUSH1 0x20 ADD DUP3 ADD PUSH1 0x40 MSTORE DUP1 ISZERO PUSH2 0xF06 JUMPI DUP2 PUSH1 0x20 ADD JUMPDEST PUSH2 0xEF3 PUSH2 0x1DED JUMP JUMPDEST DUP2 MSTORE PUSH1 0x20 ADD SWAP1 PUSH1 0x1 SWAP1 SUB SWAP1 DUP2 PUSH2 0xEEB JUMPI SWAP1 POP JUMPDEST POP SWAP1 POP PUSH1 0x0 JUMPDEST PUSH1 0x3 SLOAD DUP2 LT ISZERO PUSH2 0x13CF JUMPI PUSH1 0x0 DUP2 DUP2 MSTORE PUSH1 0x2 PUSH1 0x20 MSTORE PUSH1 0x40 DUP2 KECCAK256 PUSH1 0x9 DUP2 ADD SLOAD SWAP1 SWAP2 SWAP1 PUSH1 0x1 PUSH1 0x1 PUSH1 0x40 SHL SUB DUP2 GT ISZERO PUSH2 0xF43 JUMPI PUSH2 0xF43 PUSH2 0x1F37 JUMP JUMPDEST PUSH1 0x40 MLOAD SWAP1 DUP1 DUP3 MSTORE DUP1 PUSH1 0x20 MUL PUSH1 0x20 ADD DUP3 ADD PUSH1 0x40 MSTORE DUP1 ISZERO PUSH2 0xF6C JUMPI DUP2 PUSH1 0x20 ADD PUSH1 0x20 DUP3 MUL DUP1 CALLDATASIZE DUP4 CALLDATACOPY ADD SWAP1 POP JUMPDEST POP SWAP1 POP PUSH1 0x0 JUMPDEST PUSH1 0x9 DUP4 ADD SLOAD DUP2 LT ISZERO PUSH2 0xFCD JUMPI DUP3 PUSH1 0x8 ADD DUP2 DUP2 SLOAD DUP2 LT PUSH2 0xF93 JUMPI PUSH2 0xF93 PUSH2 0x276E JUMP JUMPDEST SWAP1 PUSH1 0x0 MSTORE PUSH1 0x20 PUSH1 0x0 KECCAK256 ADD SLOAD DUP3 DUP3 DUP2 MLOAD DUP2 LT PUSH2 0xFB0 JUMPI PUSH2 0xFB0 PUSH2 0x276E JUMP JUMPDEST PUSH1 0x20 SWAP1 DUP2 MUL SWAP2 SWAP1 SWAP2 ADD ADD MSTORE DUP1 PUSH2 0xFC5 DUP2 PUSH2 0x2753 JUMP JUMPDEST SWAP2 POP POP PUSH2 0xF72 JUMP JUMPDEST POP PUSH1 0x40 MLOAD DUP1 PUSH2 0x1A0 ADD PUSH1 0x40 MSTORE DUP1 DUP4 PUSH1 0x0 ADD SLOAD DUP2 MSTORE PUSH1 0x20 ADD DUP4 PUSH1 0x1 ADD DUP1 SLOAD PUSH2 0xFF3 SWAP1 PUSH2 0x2784 JUMP JUMPDEST DUP1 PUSH1 0x1F ADD PUSH1 0x20 DUP1 SWAP2 DIV MUL PUSH1 0x20 ADD PUSH1 0x40 MLOAD SWAP1 DUP2 ADD PUSH1 0x40 MSTORE DUP1 SWAP3 SWAP2 SWAP1 DUP2 DUP2 MSTORE PUSH1 0x20 ADD DUP3 DUP1 SLOAD PUSH2 0x101F SWAP1 PUSH2 0x2784 JUMP JUMPDEST DUP1 ISZERO PUSH2 0x106C JUMPI DUP1 PUSH1 0x1F LT PUSH2 0x1041 JUMPI PUSH2 0x100 DUP1 DUP4 SLOAD DIV MUL DUP4 MSTORE SWAP2 PUSH1 0x20 ADD SWAP2 PUSH2 0x106C JUMP JUMPDEST DUP3 ADD SWAP2 SWAP1 PUSH1 0x0 MSTORE PUSH1 0x20 PUSH1 0x0 KECCAK256 SWAP1 JUMPDEST DUP2 SLOAD DUP2 MSTORE SWAP1 PUSH1 0x1 ADD SWAP1 PUSH1 0x20 ADD DUP1 DUP4 GT PUSH2 0x104F JUMPI DUP3 SWAP1 SUB PUSH1 0x1F AND DUP3 ADD SWAP2 JUMPDEST POP POP POP POP POP DUP2 MSTORE PUSH1 0x20 ADD DUP4 PUSH1 0x2 ADD DUP1 SLOAD PUSH2 0x1085 SWAP1 PUSH2 0x2784 JUMP JUMPDEST DUP1 PUSH1 0x1F ADD PUSH1 0x20 DUP1 SWAP2 DIV MUL PUSH1 0x20 ADD PUSH1 0x40 MLOAD SWAP1 DUP2 ADD PUSH1 0x40 MSTORE DUP1 SWAP3 SWAP2 SWAP1 DUP2 DUP2 MSTORE PUSH1 0x20 ADD DUP3 DUP1 SLOAD PUSH2 0x10B1 SWAP1 PUSH2 0x2784 JUMP JUMPDEST DUP1 ISZERO PUSH2 0x10FE JUMPI DUP1 PUSH1 0x1F LT PUSH2 0x10D3 JUMPI PUSH2 0x100 DUP1 DUP4 SLOAD DIV MUL DUP4 MSTORE SWAP2 PUSH1 0x20 ADD SWAP2 PUSH2 0x10FE JUMP JUMPDEST DUP3 ADD SWAP2 SWAP1 PUSH1 0x0 MSTORE PUSH1 0x20 PUSH1 0x0 KECCAK256 SWAP1 JUMPDEST DUP2 SLOAD DUP2 MSTORE SWAP1 PUSH1 0x1 ADD SWAP1 PUSH1 0x20 ADD DUP1 DUP4 GT PUSH2 0x10E1 JUMPI DUP3 SWAP1 SUB PUSH1 0x1F AND DUP3 ADD SWAP2 JUMPDEST POP POP POP POP POP DUP2 MSTORE PUSH1 0x20 ADD DUP4 PUSH1 0x3 ADD SLOAD DUP2 MSTORE PUSH1 0x20 ADD DUP4 PUSH1 0x4 ADD SLOAD DUP2 MSTORE PUSH1 0x20 ADD DUP4 PUSH1 0x5 ADD SLOAD DUP2 MSTORE PUSH1 0x20 ADD DUP4 PUSH1 0x6 ADD DUP1 SLOAD DUP1 PUSH1 0x20 MUL PUSH1 0x20 ADD PUSH1 0x40 MLOAD SWAP1 DUP2 ADD PUSH1 0x40 MSTORE DUP1 SWAP3 SWAP2 SWAP1 DUP2 DUP2 MSTORE PUSH1 0x20 ADD PUSH1 0x0 SWAP1 JUMPDEST DUP3 DUP3 LT ISZERO PUSH2 0x11F6 JUMPI DUP4 DUP3 SWAP1 PUSH1 0x0 MSTORE PUSH1 0x20 PUSH1 0x0 KECCAK256 ADD DUP1 SLOAD PUSH2 0x1169 SWAP1 PUSH2 0x2784 JUMP JUMPDEST DUP1 PUSH1 0x1F ADD PUSH1 0x20 DUP1 SWAP2 DIV MUL PUSH1 0x20 ADD PUSH1 0x40 MLOAD SWAP1 DUP2 ADD PUSH1 0x40 MSTORE DUP1 SWAP3 SWAP2 SWAP1 DUP2 DUP2 MSTORE PUSH1 0x20 ADD DUP3 DUP1 SLOAD PUSH2 0x1195 SWAP1 PUSH2 0x2784 JUMP JUMPDEST DUP1 ISZERO PUSH2 0x11E2 JUMPI DUP1 PUSH1 0x1F LT PUSH2 0x11B7 JUMPI PUSH2 0x100 DUP1 DUP4 SLOAD DIV MUL DUP4 MSTORE SWAP2 PUSH1 0x20 ADD SWAP2 PUSH2 0x11E2 JUMP JUMPDEST DUP3 ADD SWAP2 SWAP1 PUSH1 0x0 MSTORE PUSH1 0x20 PUSH1 0x0 KECCAK256 SWAP1 JUMPDEST DUP2 SLOAD DUP2 MSTORE SWAP1 PUSH1 0x1 ADD SWAP1 PUSH1 0x20 ADD DUP1 DUP4 GT PUSH2 0x11C5 JUMPI DUP3 SWAP1 SUB PUSH1 0x1F AND DUP3 ADD SWAP2 JUMPDEST POP POP POP POP POP DUP2 MSTORE PUSH1 0x20 ADD SWAP1 PUSH1 0x1 ADD SWAP1 PUSH2 0x114A JUMP JUMPDEST POP POP POP POP DUP2 MSTORE PUSH1 0x20 ADD DUP4 PUSH1 0x7 ADD DUP1 SLOAD PUSH2 0x120E SWAP1 PUSH2 0x2784 JUMP JUMPDEST DUP1 PUSH1 0x1F ADD PUSH1 0x20 DUP1 SWAP2 DIV MUL PUSH1 0x20 ADD PUSH1 0x40 MLOAD SWAP1 DUP2 ADD PUSH1 0x40 MSTORE DUP1 SWAP3 SWAP2 SWAP1 DUP2 DUP2 MSTORE PUSH1 0x20 ADD DUP3 DUP1 SLOAD PUSH2 0x123A SWAP1 PUSH2 0x2784 JUMP JUMPDEST DUP1 ISZERO PUSH2 0x1287 JUMPI DUP1 PUSH1 0x1F LT PUSH2 0x125C JUMPI PUSH2 0x100 DUP1 DUP4 SLOAD DIV MUL DUP4 MSTORE SWAP2 PUSH1 0x20 ADD SWAP2 PUSH2 0x1287 JUMP JUMPDEST DUP3 ADD SWAP2 SWAP1 PUSH1 0x0 MSTORE PUSH1 0x20 PUSH1 0x0 KECCAK256 SWAP1 JUMPDEST DUP2 SLOAD DUP2 MSTORE SWAP1 PUSH1 0x1 ADD SWAP1 PUSH1 0x20 ADD DUP1 DUP4 GT PUSH2 0x126A JUMPI DUP3 SWAP1 SUB PUSH1 0x1F AND DUP3 ADD SWAP2 JUMPDEST POP POP POP POP POP DUP2 MSTORE PUSH1 0x20 ADD DUP3 DUP2 MSTORE PUSH1 0x20 ADD DUP4 PUSH1 0x9 ADD DUP1 SLOAD DUP1 PUSH1 0x20 MUL PUSH1 0x20 ADD PUSH1 0x40 MLOAD SWAP1 DUP2 ADD PUSH1 0x40 MSTORE DUP1 SWAP3 SWAP2 SWAP1 DUP2 DUP2 MSTORE PUSH1 0x20 ADD DUP3 DUP1 SLOAD DUP1 ISZERO PUSH2 0x12EF JUMPI PUSH1 0x20 MUL DUP3 ADD SWAP2 SWAP1 PUSH1 0x0 MSTORE PUSH1 0x20 PUSH1 0x0 KECCAK256 SWAP1 JUMPDEST DUP2 SLOAD PUSH1 0x1 PUSH1 0x1 PUSH1 0xA0 SHL SUB AND DUP2 MSTORE PUSH1 0x1 SWAP1 SWAP2 ADD SWAP1 PUSH1 0x20 ADD DUP1 DUP4 GT PUSH2 0x12D1 JUMPI JUMPDEST POP POP POP POP POP DUP2 MSTORE PUSH1 0x20 ADD DUP4 PUSH1 0xA ADD SLOAD DUP2 MSTORE PUSH1 0x20 ADD DUP4 PUSH1 0xB ADD SLOAD DUP2 MSTORE PUSH1 0x20 ADD DUP4 PUSH1 0xC ADD DUP1 SLOAD PUSH2 0x131C SWAP1 PUSH2 0x2784 JUMP JUMPDEST DUP1 PUSH1 0x1F ADD PUSH1 0x20 DUP1 SWAP2 DIV MUL PUSH1 0x20 ADD PUSH1 0x40 MLOAD SWAP1 DUP2 ADD PUSH1 0x40 MSTORE DUP1 SWAP3 SWAP2 SWAP1 DUP2 DUP2 MSTORE PUSH1 0x20 ADD DUP3 DUP1 SLOAD PUSH2 0x1348 SWAP1 PUSH2 0x2784 JUMP JUMPDEST DUP1 ISZERO PUSH2 0x1395 JUMPI DUP1 PUSH1 0x1F LT PUSH2 0x136A JUMPI PUSH2 0x100 DUP1 DUP4 SLOAD DIV MUL DUP4 MSTORE SWAP2 PUSH1 0x20 ADD SWAP2 PUSH2 0x1395 JUMP JUMPDEST DUP3 ADD SWAP2 SWAP1 PUSH1 0x0 MSTORE PUSH1 0x20 PUSH1 0x0 KECCAK256 SWAP1 JUMPDEST DUP2 SLOAD DUP2 MSTORE SWAP1 PUSH1 0x1 ADD SWAP1 PUSH1 0x20 ADD DUP1 DUP4 GT PUSH2 0x1378 JUMPI DUP3 SWAP1 SUB PUSH1 0x1F AND DUP3 ADD SWAP2 JUMPDEST POP POP POP POP POP DUP2 MSTORE POP DUP5 DUP5 DUP2 MLOAD DUP2 LT PUSH2 0x13AF JUMPI PUSH2 0x13AF PUSH2 0x276E JUMP JUMPDEST PUSH1 0x20 MUL PUSH1 0x20 ADD ADD DUP2 SWAP1 MSTORE POP POP POP DUP1 DUP1 PUSH2 0x13C7 SWAP1 PUSH2 0x2753 JUMP JUMPDEST SWAP2 POP POP PUSH2 0xF0C JUMP JUMPDEST POP SWAP2 SWAP1 POP JUMP JUMPDEST PUSH2 0x13DD PUSH2 0x1DED JUMP JUMPDEST PUSH1 0x3 SLOAD DUP3 LT PUSH2 0x13FE JUMPI PUSH1 0x40 MLOAD PUSH3 0x461BCD PUSH1 0xE5 SHL DUP2 MSTORE PUSH1 0x4 ADD PUSH2 0x2AA SWAP1 PUSH2 0x262B JUMP JUMPDEST PUSH1 0x2 PUSH1 0x0 DUP4 DUP2 MSTORE PUSH1 0x20 ADD SWAP1 DUP2 MSTORE PUSH1 0x20 ADD PUSH1 0x0 KECCAK256 PUSH1 0x40 MLOAD DUP1 PUSH2 0x1A0 ADD PUSH1 0x40 MSTORE SWAP1 DUP2 PUSH1 0x0 DUP3 ADD SLOAD DUP2 MSTORE PUSH1 0x20 ADD PUSH1 0x1 DUP3 ADD DUP1 SLOAD PUSH2 0x1437 SWAP1 PUSH2 0x2784 JUMP JUMPDEST DUP1 PUSH1 0x1F ADD PUSH1 0x20 DUP1 SWAP2 DIV MUL PUSH1 0x20 ADD PUSH1 0x40 MLOAD SWAP1 DUP2 ADD PUSH1 0x40 MSTORE DUP1 SWAP3 SWAP2 SWAP1 DUP2 DUP2 MSTORE PUSH1 0x20 ADD DUP3 DUP1 SLOAD PUSH2 0x1463 SWAP1 PUSH2 0x2784 JUMP JUMPDEST DUP1 ISZERO PUSH2 0x14B0 JUMPI DUP1 PUSH1 0x1F LT PUSH2 0x1485 JUMPI PUSH2 0x100 DUP1 DUP4 SLOAD DIV MUL DUP4 MSTORE SWAP2 PUSH1 0x20 ADD SWAP2 PUSH2 0x14B0 JUMP JUMPDEST DUP3 ADD SWAP2 SWAP1 PUSH1 0x0 MSTORE PUSH1 0x20 PUSH1 0x0 KECCAK256 SWAP1 JUMPDEST DUP2 SLOAD DUP2 MSTORE SWAP1 PUSH1 0x1 ADD SWAP1 PUSH1 0x20 ADD DUP1 DUP4 GT PUSH2 0x1493 JUMPI DUP3 SWAP1 SUB PUSH1 0x1F AND DUP3 ADD SWAP2 JUMPDEST POP POP POP POP POP DUP2 MSTORE PUSH1 0x20 ADD PUSH1 0x2 DUP3 ADD DUP1 SLOAD PUSH2 0x14C9 SWAP1 PUSH2 0x2784 JUMP JUMPDEST DUP1 PUSH1 0x1F ADD PUSH1 0x20 DUP1 SWAP2 DIV MUL PUSH1 0x20 ADD PUSH1 0x40 MLOAD SWAP1 DUP2 ADD PUSH1 0x40 MSTORE DUP1 SWAP3 SWAP2 SWAP1 DUP2 DUP2 MSTORE PUSH1 0x20 ADD DUP3 DUP1 SLOAD PUSH2 0x14F5 SWAP1 PUSH2 0x2784 JUMP JUMPDEST DUP1 ISZERO PUSH2 0x1542 JUMPI DUP1 PUSH1 0x1F LT PUSH2 0x1517 JUMPI PUSH2 0x100 DUP1 DUP4 SLOAD DIV MUL DUP4 MSTORE SWAP2 PUSH1 0x20 ADD SWAP2 PUSH2 0x1542 JUMP JUMPDEST DUP3 ADD SWAP2 SWAP1 PUSH1 0x0 MSTORE PUSH1 0x20 PUSH1 0x0 KECCAK256 SWAP1 JUMPDEST DUP2 SLOAD DUP2 MSTORE SWAP1 PUSH1 0x1 ADD SWAP1 PUSH1 0x20 ADD DUP1 DUP4 GT PUSH2 0x1525 JUMPI DUP3 SWAP1 SUB PUSH1 0x1F AND DUP3 ADD SWAP2 JUMPDEST POP POP POP POP POP DUP2 MSTORE PUSH1 0x20 ADD PUSH1 0x3 DUP3 ADD SLOAD DUP2 MSTORE PUSH1 0x20 ADD PUSH1 0x4 DUP3 ADD SLOAD DUP2 MSTORE PUSH1 0x20 ADD PUSH1 0x5 DUP3 ADD SLOAD DUP2 MSTORE PUSH1 0x20 ADD PUSH1 0x6 DUP3 ADD DUP1 SLOAD DUP1 PUSH1 0x20 MUL PUSH1 0x20 ADD PUSH1 0x40 MLOAD SWAP1 DUP2 ADD PUSH1 0x40 MSTORE DUP1 SWAP3 SWAP2 SWAP1 DUP2 DUP2 MSTORE PUSH1 0x20 ADD PUSH1 0x0 SWAP1 JUMPDEST DUP3 DUP3 LT ISZERO PUSH2 0x163A JUMPI DUP4 DUP3 SWAP1 PUSH1 0x0 MSTORE PUSH1 0x20 PUSH1 0x0 KECCAK256 ADD DUP1 SLOAD PUSH2 0x15AD SWAP1 PUSH2 0x2784 JUMP JUMPDEST DUP1 PUSH1 0x1F ADD PUSH1 0x20 DUP1 SWAP2 DIV MUL PUSH1 0x20 ADD PUSH1 0x40 MLOAD SWAP1 DUP2 ADD PUSH1 0x40 MSTORE DUP1 SWAP3 SWAP2 SWAP1 DUP2 DUP2 MSTORE PUSH1 0x20 ADD DUP3 DUP1 SLOAD PUSH2 0x15D9 SWAP1 PUSH2 0x2784 JUMP JUMPDEST DUP1 ISZERO PUSH2 0x1626 JUMPI DUP1 PUSH1 0x1F LT PUSH2 0x15FB JUMPI PUSH2 0x100 DUP1 DUP4 SLOAD DIV MUL DUP4 MSTORE SWAP2 PUSH1 0x20 ADD SWAP2 PUSH2 0x1626 JUMP JUMPDEST DUP3 ADD SWAP2 SWAP1 PUSH1 0x0 MSTORE PUSH1 0x20 PUSH1 0x0 KECCAK256 SWAP1 JUMPDEST DUP2 SLOAD DUP2 MSTORE SWAP1 PUSH1 0x1 ADD SWAP1 PUSH1 0x20 ADD DUP1 DUP4 GT PUSH2 0x1609 JUMPI DUP3 SWAP1 SUB PUSH1 0x1F AND DUP3 ADD SWAP2 JUMPDEST POP POP POP POP POP DUP2 MSTORE PUSH1 0x20 ADD SWAP1 PUSH1 0x1 ADD SWAP1 PUSH2 0x158E JUMP JUMPDEST POP POP POP POP DUP2 MSTORE PUSH1 0x20 ADD PUSH1 0x7 DUP3 ADD DUP1 SLOAD PUSH2 0x1652 SWAP1 PUSH2 0x2784 JUMP JUMPDEST DUP1 PUSH1 0x1F ADD PUSH1 0x20 DUP1 SWAP2 DIV MUL PUSH1 0x20 ADD PUSH1 0x40 MLOAD SWAP1 DUP2 ADD PUSH1 0x40 MSTORE DUP1 SWAP3 SWAP2 SWAP1 DUP2 DUP2 MSTORE PUSH1 0x20 ADD DUP3 DUP1 SLOAD PUSH2 0x167E SWAP1 PUSH2 0x2784 JUMP JUMPDEST DUP1 ISZERO PUSH2 0x16CB JUMPI DUP1 PUSH1 0x1F LT PUSH2 0x16A0 JUMPI PUSH2 0x100 DUP1 DUP4 SLOAD DIV MUL DUP4 MSTORE SWAP2 PUSH1 0x20 ADD SWAP2 PUSH2 0x16CB JUMP JUMPDEST DUP3 ADD SWAP2 SWAP1 PUSH1 0x0 MSTORE PUSH1 0x20 PUSH1 0x0 KECCAK256 SWAP1 JUMPDEST DUP2 SLOAD DUP2 MSTORE SWAP1 PUSH1 0x1 ADD SWAP1 PUSH1 0x20 ADD DUP1 DUP4 GT PUSH2 0x16AE JUMPI DUP3 SWAP1 SUB PUSH1 0x1F AND DUP3 ADD SWAP2 JUMPDEST POP POP POP POP POP DUP2 MSTORE PUSH1 0x20 ADD PUSH1 0x8 DUP3 ADD DUP1 SLOAD DUP1 PUSH1 0x20 MUL PUSH1 0x20 ADD PUSH1 0x40 MLOAD SWAP1 DUP2 ADD PUSH1 0x40 MSTORE DUP1 SWAP3 SWAP2 SWAP1 DUP2 DUP2 MSTORE PUSH1 0x20 ADD DUP3 DUP1 SLOAD DUP1 ISZERO PUSH2 0x1723 JUMPI PUSH1 0x20 MUL DUP3 ADD SWAP2 SWAP1 PUSH1 0x0 MSTORE PUSH1 0x20 PUSH1 0x0 KECCAK256 SWAP1 JUMPDEST DUP2 SLOAD DUP2 MSTORE PUSH1 0x20 ADD SWAP1 PUSH1 0x1 ADD SWAP1 DUP1 DUP4 GT PUSH2 0x170F JUMPI JUMPDEST POP POP POP POP POP DUP2 MSTORE PUSH1 0x20 ADD PUSH1 0x9 DUP3 ADD DUP1 SLOAD DUP1 PUSH1 0x20 MUL PUSH1 0x20 ADD PUSH1 0x40 MLOAD SWAP1 DUP2 ADD PUSH1 0x40 MSTORE DUP1 SWAP3 SWAP2 SWAP1 DUP2 DUP2 MSTORE PUSH1 0x20 ADD DUP3 DUP1 SLOAD DUP1 ISZERO PUSH2 0x1785 JUMPI PUSH1 0x20 MUL DUP3 ADD SWAP2 SWAP1 PUSH1 0x0 MSTORE PUSH1 0x20 PUSH1 0x0 KECCAK256 SWAP1 JUMPDEST DUP2 SLOAD PUSH1 0x1 PUSH1 0x1 PUSH1 0xA0 SHL SUB AND DUP2 MSTORE PUSH1 0x1 SWAP1 SWAP2 ADD SWAP1 PUSH1 0x20 ADD DUP1 DUP4 GT PUSH2 0x1767 JUMPI JUMPDEST POP POP POP POP POP DUP2 MSTORE PUSH1 0x20 ADD PUSH1 0xA DUP3 ADD SLOAD DUP2 MSTORE PUSH1 0x20 ADD PUSH1 0xB DUP3 ADD SLOAD DUP2 MSTORE PUSH1 0x20 ADD PUSH1 0xC DUP3 ADD DUP1 SLOAD PUSH2 0x17B2 SWAP1 PUSH2 0x2784 JUMP JUMPDEST DUP1 PUSH1 0x1F ADD PUSH1 0x20 DUP1 SWAP2 DIV MUL PUSH1 0x20 ADD PUSH1 0x40 MLOAD SWAP1 DUP2 ADD PUSH1 0x40 MSTORE DUP1 SWAP3 SWAP2 SWAP1 DUP2 DUP2 MSTORE PUSH1 0x20 ADD DUP3 DUP1 SLOAD PUSH2 0x17DE SWAP1 PUSH2 0x2784 JUMP JUMPDEST DUP1 ISZERO PUSH2 0x182B JUMPI DUP1 PUSH1 0x1F LT PUSH2 0x1800 JUMPI PUSH2 0x100 DUP1 DUP4 SLOAD DIV MUL DUP4 MSTORE SWAP2 PUSH1 0x20 ADD SWAP2 PUSH2 0x182B JUMP JUMPDEST DUP3 ADD SWAP2 SWAP1 PUSH1 0x0 MSTORE PUSH1 0x20 PUSH1 0x0 KECCAK256 SWAP1 JUMPDEST DUP2 SLOAD DUP2 MSTORE SWAP1 PUSH1 0x1 ADD SWAP1 PUSH1 0x20 ADD DUP1 DUP4 GT PUSH2 0x180E JUMPI DUP3 SWAP1 SUB PUSH1 0x1F AND DUP3 ADD SWAP2 JUMPDEST POP POP POP POP POP DUP2 MSTORE POP POP SWAP1 POP SWAP2 SWAP1 POP JUMP JUMPDEST DUP9 PUSH1 0x3 SLOAD DUP2 LT PUSH2 0x185D JUMPI PUSH1 0x40 MLOAD PUSH3 0x461BCD PUSH1 0xE5 SHL DUP2 MSTORE PUSH1 0x4 ADD PUSH2 0x2AA SWAP1 PUSH2 0x262B JUMP JUMPDEST DUP3 DUP5 LT PUSH2 0x187C JUMPI PUSH1 0x40 MLOAD PUSH3 0x461BCD PUSH1 0xE5 SHL DUP2 MSTORE PUSH1 0x4 ADD PUSH2 0x2AA SWAP1 PUSH2 0x271F JUMP JUMPDEST PUSH1 0x0 DUP11 DUP2 MSTORE PUSH1 0x2 PUSH1 0x20 SWAP1 DUP2 MSTORE PUSH1 0x40 SWAP1 SWAP2 KECCAK256 DUP11 MLOAD SWAP1 SWAP2 PUSH2 0x18A2 SWAP2 PUSH1 0x1 DUP5 ADD SWAP2 DUP14 ADD SWAP1 PUSH2 0x1D10 JUMP JUMPDEST POP DUP9 MLOAD PUSH2 0x18B8 SWAP1 PUSH1 0x2 DUP4 ADD SWAP1 PUSH1 0x20 DUP13 ADD SWAP1 PUSH2 0x1D10 JUMP JUMPDEST POP PUSH1 0x3 DUP2 ADD DUP9 SWAP1 SSTORE DUP7 MLOAD PUSH2 0x18D5 SWAP1 PUSH1 0x6 DUP4 ADD SWAP1 PUSH1 0x20 DUP11 ADD SWAP1 PUSH2 0x1D94 JUMP JUMPDEST POP DUP6 MLOAD PUSH2 0x18EB SWAP1 PUSH1 0x7 DUP4 ADD SWAP1 PUSH1 0x20 DUP10 ADD SWAP1 PUSH2 0x1D10 JUMP JUMPDEST POP PUSH1 0xA DUP2 ADD DUP6 SWAP1 SSTORE PUSH1 0xB DUP2 ADD DUP5 SWAP1 SSTORE DUP3 MLOAD PUSH2 0x190F SWAP1 PUSH1 0xC DUP4 ADD SWAP1 PUSH1 0x20 DUP7 ADD SWAP1 PUSH2 0x1D10 JUMP JUMPDEST POP POP POP POP POP POP POP POP POP POP POP POP JUMP JUMPDEST PUSH1 0x2 PUSH1 0x20 MSTORE PUSH1 0x0 SWAP1 DUP2 MSTORE PUSH1 0x40 SWAP1 KECCAK256 DUP1 SLOAD PUSH1 0x1 DUP3 ADD DUP1 SLOAD SWAP2 SWAP3 SWAP2 PUSH2 0x193F SWAP1 PUSH2 0x2784 JUMP JUMPDEST DUP1 PUSH1 0x1F ADD PUSH1 0x20 DUP1 SWAP2 DIV MUL PUSH1 0x20 ADD PUSH1 0x40 MLOAD SWAP1 DUP2 ADD PUSH1 0x40 MSTORE DUP1 SWAP3 SWAP2 SWAP1 DUP2 DUP2 MSTORE PUSH1 0x20 ADD DUP3 DUP1 SLOAD PUSH2 0x196B SWAP1 PUSH2 0x2784 JUMP JUMPDEST DUP1 ISZERO PUSH2 0x19B8 JUMPI DUP1 PUSH1 0x1F LT PUSH2 0x198D JUMPI PUSH2 0x100 DUP1 DUP4 SLOAD DIV MUL DUP4 MSTORE SWAP2 PUSH1 0x20 ADD SWAP2 PUSH2 0x19B8 JUMP JUMPDEST DUP3 ADD SWAP2 SWAP1 PUSH1 0x0 MSTORE PUSH1 0x20 PUSH1 0x0 KECCAK256 SWAP1 JUMPDEST DUP2 SLOAD DUP2 MSTORE SWAP1 PUSH1 0x1 ADD SWAP1 PUSH1 0x20 ADD DUP1 DUP4 GT PUSH2 0x199B JUMPI DUP3 SWAP1 SUB PUSH1 0x1F AND DUP3 ADD SWAP2 JUMPDEST POP POP POP POP POP SWAP1 DUP1 PUSH1 0x2 ADD DUP1 SLOAD PUSH2 0x19CD SWAP1 PUSH2 0x2784 JUMP JUMPDEST DUP1 PUSH1 0x1F ADD PUSH1 0x20 DUP1 SWAP2 DIV MUL PUSH1 0x20 ADD PUSH1 0x40 MLOAD SWAP1 DUP2 ADD PUSH1 0x40 MSTORE DUP1 SWAP3 SWAP2 SWAP1 DUP2 DUP2 MSTORE PUSH1 0x20 ADD DUP3 DUP1 SLOAD PUSH2 0x19F9 SWAP1 PUSH2 0x2784 JUMP JUMPDEST DUP1 ISZERO PUSH2 0x1A46 JUMPI DUP1 PUSH1 0x1F LT PUSH2 0x1A1B JUMPI PUSH2 0x100 DUP1 DUP4 SLOAD DIV MUL DUP4 MSTORE SWAP2 PUSH1 0x20 ADD SWAP2 PUSH2 0x1A46 JUMP JUMPDEST DUP3 ADD SWAP2 SWAP1 PUSH1 0x0 MSTORE PUSH1 0x20 PUSH1 0x0 KECCAK256 SWAP1 JUMPDEST DUP2 SLOAD DUP2 MSTORE SWAP1 PUSH1 0x1 ADD SWAP1 PUSH1 0x20 ADD DUP1 DUP4 GT PUSH2 0x1A29 JUMPI DUP3 SWAP1 SUB PUSH1 0x1F AND DUP3 ADD SWAP2 JUMPDEST POP POP POP POP POP SWAP1 DUP1 PUSH1 0x3 ADD SLOAD SWAP1 DUP1 PUSH1 0x4 ADD SLOAD SWAP1 DUP1 PUSH1 0x5 ADD SLOAD SWAP1 DUP1 PUSH1 0x7 ADD DUP1 SLOAD PUSH2 0x1A6D SWAP1 PUSH2 0x2784 JUMP JUMPDEST DUP1 PUSH1 0x1F ADD PUSH1 0x20 DUP1 SWAP2 DIV MUL PUSH1 0x20 ADD PUSH1 0x40 MLOAD SWAP1 DUP2 ADD PUSH1 0x40 MSTORE DUP1 SWAP3 SWAP2 SWAP1 DUP2 DUP2 MSTORE PUSH1 0x20 ADD DUP3 DUP1 SLOAD PUSH2 0x1A99 SWAP1 PUSH2 0x2784 JUMP JUMPDEST DUP1 ISZERO PUSH2 0x1AE6 JUMPI DUP1 PUSH1 0x1F LT PUSH2 0x1ABB JUMPI PUSH2 0x100 DUP1 DUP4 SLOAD DIV MUL DUP4 MSTORE SWAP2 PUSH1 0x20 ADD SWAP2 PUSH2 0x1AE6 JUMP JUMPDEST DUP3 ADD SWAP2 SWAP1 PUSH1 0x0 MSTORE PUSH1 0x20 PUSH1 0x0 KECCAK256 SWAP1 JUMPDEST DUP2 SLOAD DUP2 MSTORE SWAP1 PUSH1 0x1 ADD SWAP1 PUSH1 0x20 ADD DUP1 DUP4 GT PUSH2 0x1AC9 JUMPI DUP3 SWAP1 SUB PUSH1 0x1F AND DUP3 ADD SWAP2 JUMPDEST POP POP POP POP POP SWAP1 DUP1 PUSH1 0xA ADD SLOAD SWAP1 DUP1 PUSH1 0xB ADD SLOAD SWAP1 DUP1 PUSH1 0xC ADD DUP1 SLOAD PUSH2 0x1B07 SWAP1 PUSH2 0x2784 JUMP JUMPDEST DUP1 PUSH1 0x1F ADD PUSH1 0x20 DUP1 SWAP2 DIV MUL PUSH1 0x20 ADD PUSH1 0x40 MLOAD SWAP1 DUP2 ADD PUSH1 0x40 MSTORE DUP1 SWAP3 SWAP2 SWAP1 DUP2 DUP2 MSTORE PUSH1 0x20 ADD DUP3 DUP1 SLOAD PUSH2 0x1B33 SWAP1 PUSH2 0x2784 JUMP JUMPDEST DUP1 ISZERO PUSH2 0x1B80 JUMPI DUP1 PUSH1 0x1F LT PUSH2 0x1B55 JUMPI PUSH2 0x100 DUP1 DUP4 SLOAD DIV MUL DUP4 MSTORE SWAP2 PUSH1 0x20 ADD SWAP2 PUSH2 0x1B80 JUMP JUMPDEST DUP3 ADD SWAP2 SWAP1 PUSH1 0x0 MSTORE PUSH1 0x20 PUSH1 0x0 KECCAK256 SWAP1 JUMPDEST DUP2 SLOAD DUP2 MSTORE SWAP1 PUSH1 0x1 ADD SWAP1 PUSH1 0x20 ADD DUP1 DUP4 GT PUSH2 0x1B63 JUMPI DUP3 SWAP1 SUB PUSH1 0x1F AND DUP3 ADD SWAP2 JUMPDEST POP POP POP POP POP SWAP1 POP DUP11 JUMP JUMPDEST PUSH1 0x0 PUSH32 0x0 PUSH1 0x1 PUSH1 0x1 PUSH1 0xA0 SHL SUB AND PUSH4 0x4000AEA0 PUSH32 0x0 DUP5 DUP7 PUSH1 0x0 PUSH1 0x40 MLOAD PUSH1 0x20 ADD PUSH2 0x1BFA SWAP3 SWAP2 SWAP1 SWAP2 DUP3 MSTORE PUSH1 0x20 DUP3 ADD MSTORE PUSH1 0x40 ADD SWAP1 JUMP JUMPDEST PUSH1 0x40 MLOAD PUSH1 0x20 DUP2 DUP4 SUB SUB DUP2 MSTORE SWAP1 PUSH1 0x40 MSTORE PUSH1 0x40 MLOAD DUP5 PUSH4 0xFFFFFFFF AND PUSH1 0xE0 SHL DUP2 MSTORE PUSH1 0x4 ADD PUSH2 0x1C27 SWAP4 SWAP3 SWAP2 SWAP1 PUSH2 0x2801 JUMP JUMPDEST PUSH1 0x20 PUSH1 0x40 MLOAD DUP1 DUP4 SUB DUP2 PUSH1 0x0 DUP8 DUP1 EXTCODESIZE ISZERO DUP1 ISZERO PUSH2 0x1C41 JUMPI PUSH1 0x0 DUP1 REVERT JUMPDEST POP GAS CALL ISZERO DUP1 ISZERO PUSH2 0x1C55 JUMPI RETURNDATASIZE PUSH1 0x0 DUP1 RETURNDATACOPY RETURNDATASIZE PUSH1 0x0 REVERT JUMPDEST POP POP POP POP PUSH1 0x40 MLOAD RETURNDATASIZE PUSH1 0x1F NOT PUSH1 0x1F DUP3 ADD AND DUP3 ADD DUP1 PUSH1 0x40 MSTORE POP DUP2 ADD SWAP1 PUSH2 0x1C79 SWAP2 SWAP1 PUSH2 0x2831 JUMP JUMPDEST POP PUSH1 0x0 DUP4 DUP2 MSTORE PUSH1 0x20 DUP2 DUP2 MSTORE PUSH1 0x40 DUP1 DUP4 KECCAK256 SLOAD DUP2 MLOAD DUP1 DUP5 ADD DUP9 SWAP1 MSTORE DUP1 DUP4 ADD DUP6 SWAP1 MSTORE ADDRESS PUSH1 0x60 DUP3 ADD MSTORE PUSH1 0x80 DUP1 DUP3 ADD DUP4 SWAP1 MSTORE DUP4 MLOAD DUP1 DUP4 SUB SWAP1 SWAP2 ADD DUP2 MSTORE PUSH1 0xA0 SWAP1 SWAP2 ADD SWAP1 SWAP3 MSTORE DUP2 MLOAD SWAP2 DUP4 ADD SWAP2 SWAP1 SWAP2 KECCAK256 DUP7 DUP5 MSTORE SWAP3 SWAP1 SWAP2 MSTORE PUSH2 0x1CD3 SWAP1 PUSH1 0x1 PUSH2 0x27D2 JUMP JUMPDEST PUSH1 0x0 DUP6 DUP2 MSTORE PUSH1 0x20 DUP2 DUP2 MSTORE PUSH1 0x40 SWAP2 DUP3 SWAP1 KECCAK256 SWAP3 SWAP1 SWAP3 SSTORE DUP1 MLOAD DUP1 DUP4 ADD DUP8 SWAP1 MSTORE DUP1 DUP3 ADD DUP5 SWAP1 MSTORE DUP2 MLOAD DUP1 DUP3 SUB DUP4 ADD DUP2 MSTORE PUSH1 0x60 SWAP1 SWAP2 ADD SWAP1 SWAP2 MSTORE DUP1 MLOAD SWAP2 ADD KECCAK256 PUSH2 0x3FD JUMP JUMPDEST DUP3 DUP1 SLOAD PUSH2 0x1D1C SWAP1 PUSH2 0x2784 JUMP JUMPDEST SWAP1 PUSH1 0x0 MSTORE PUSH1 0x20 PUSH1 0x0 KECCAK256 SWAP1 PUSH1 0x1F ADD PUSH1 0x20 SWAP1 DIV DUP2 ADD SWAP3 DUP3 PUSH2 0x1D3E JUMPI PUSH1 0x0 DUP6 SSTORE PUSH2 0x1D84 JUMP JUMPDEST DUP3 PUSH1 0x1F LT PUSH2 0x1D57 JUMPI DUP1 MLOAD PUSH1 0xFF NOT AND DUP4 DUP1 ADD OR DUP6 SSTORE PUSH2 0x1D84 JUMP JUMPDEST DUP3 DUP1 ADD PUSH1 0x1 ADD DUP6 SSTORE DUP3 ISZERO PUSH2 0x1D84 JUMPI SWAP2 DUP3 ADD JUMPDEST DUP3 DUP2 GT ISZERO PUSH2 0x1D84 JUMPI DUP3 MLOAD DUP3 SSTORE SWAP2 PUSH1 0x20 ADD SWAP2 SWAP1 PUSH1 0x1 ADD SWAP1 PUSH2 0x1D69 JUMP JUMPDEST POP PUSH2 0x1D90 SWAP3 SWAP2 POP PUSH2 0x1ECA JUMP JUMPDEST POP SWAP1 JUMP JUMPDEST DUP3 DUP1 SLOAD DUP3 DUP3 SSTORE SWAP1 PUSH1 0x0 MSTORE PUSH1 0x20 PUSH1 0x0 KECCAK256 SWAP1 DUP2 ADD SWAP3 DUP3 ISZERO PUSH2 0x1DE1 JUMPI SWAP2 PUSH1 0x20 MUL DUP3 ADD JUMPDEST DUP3 DUP2 GT ISZERO PUSH2 0x1DE1 JUMPI DUP3 MLOAD DUP1 MLOAD PUSH2 0x1DD1 SWAP2 DUP5 SWAP2 PUSH1 0x20 SWAP1 SWAP2 ADD SWAP1 PUSH2 0x1D10 JUMP JUMPDEST POP SWAP2 PUSH1 0x20 ADD SWAP2 SWAP1 PUSH1 0x1 ADD SWAP1 PUSH2 0x1DB4 JUMP JUMPDEST POP PUSH2 0x1D90 SWAP3 SWAP2 POP PUSH2 0x1EDF JUMP JUMPDEST PUSH1 0x40 MLOAD DUP1 PUSH2 0x1A0 ADD PUSH1 0x40 MSTORE DUP1 PUSH1 0x0 DUP2 MSTORE PUSH1 0x20 ADD PUSH1 0x60 DUP2 MSTORE PUSH1 0x20 ADD PUSH1 0x60 DUP2 MSTORE PUSH1 0x20 ADD PUSH1 0x0 DUP2 MSTORE PUSH1 0x20 ADD PUSH1 0x0 DUP2 MSTORE PUSH1 0x20 ADD PUSH1 0x0 DUP2 MSTORE PUSH1 0x20 ADD PUSH1 0x60 DUP2 MSTORE PUSH1 0x20 ADD PUSH1 0x60 DUP2 MSTORE PUSH1 0x20 ADD PUSH1 0x60 DUP2 MSTORE PUSH1 0x20 ADD PUSH1 0x60 DUP2 MSTORE PUSH1 0x20 ADD PUSH1 0x0 DUP2 MSTORE PUSH1 0x20 ADD PUSH1 0x0 DUP2 MSTORE PUSH1 0x20 ADD PUSH1 0x60 DUP2 MSTORE POP SWAP1 JUMP JUMPDEST POP DUP1 SLOAD PUSH2 0x1E61 SWAP1 PUSH2 0x2784 JUMP JUMPDEST PUSH1 0x0 DUP3 SSTORE DUP1 PUSH1 0x1F LT PUSH2 0x1E71 JUMPI POP POP JUMP JUMPDEST PUSH1 0x1F ADD PUSH1 0x20 SWAP1 DIV SWAP1 PUSH1 0x0 MSTORE PUSH1 0x20 PUSH1 0x0 KECCAK256 SWAP1 DUP2 ADD SWAP1 PUSH2 0x1E8F SWAP2 SWAP1 PUSH2 0x1ECA JUMP JUMPDEST POP JUMP JUMPDEST POP DUP1 SLOAD PUSH1 0x0 DUP3 SSTORE SWAP1 PUSH1 0x0 MSTORE PUSH1 0x20 PUSH1 0x0 KECCAK256 SWAP1 DUP2 ADD SWAP1 PUSH2 0x1E8F SWAP2 SWAP1 PUSH2 0x1EDF JUMP JUMPDEST POP DUP1 SLOAD PUSH1 0x0 DUP3 SSTORE SWAP1 PUSH1 0x0 MSTORE PUSH1 0x20 PUSH1 0x0 KECCAK256 SWAP1 DUP2 ADD SWAP1 PUSH2 0x1E8F SWAP2 SWAP1 JUMPDEST JUMPDEST DUP1 DUP3 GT ISZERO PUSH2 0x1D90 JUMPI PUSH1 0x0 DUP2 SSTORE PUSH1 0x1 ADD PUSH2 0x1ECB JUMP JUMPDEST DUP1 DUP3 GT ISZERO PUSH2 0x1D90 JUMPI PUSH1 0x0 PUSH2 0x1EF3 DUP3 DUP3 PUSH2 0x1E55 JUMP JUMPDEST POP PUSH1 0x1 ADD PUSH2 0x1EDF JUMP JUMPDEST PUSH1 0x0 DUP1 PUSH1 0x40 DUP4 DUP6 SUB SLT ISZERO PUSH2 0x1F0F JUMPI PUSH1 0x0 DUP1 REVERT JUMPDEST POP POP DUP1 CALLDATALOAD SWAP3 PUSH1 0x20 SWAP1 SWAP2 ADD CALLDATALOAD SWAP2 POP JUMP JUMPDEST PUSH1 0x0 PUSH1 0x20 DUP3 DUP5 SUB SLT ISZERO PUSH2 0x1F30 JUMPI PUSH1 0x0 DUP1 REVERT JUMPDEST POP CALLDATALOAD SWAP2 SWAP1 POP JUMP JUMPDEST PUSH4 0x4E487B71 PUSH1 0xE0 SHL PUSH1 0x0 MSTORE PUSH1 0x41 PUSH1 0x4 MSTORE PUSH1 0x24 PUSH1 0x0 REVERT JUMPDEST PUSH1 0x40 MLOAD PUSH1 0x1F DUP3 ADD PUSH1 0x1F NOT AND DUP2 ADD PUSH1 0x1 PUSH1 0x1 PUSH1 0x40 SHL SUB DUP2 GT DUP3 DUP3 LT OR ISZERO PUSH2 0x1F75 JUMPI PUSH2 0x1F75 PUSH2 0x1F37 JUMP JUMPDEST PUSH1 0x40 MSTORE SWAP2 SWAP1 POP JUMP JUMPDEST PUSH1 0x0 PUSH1 0x1 PUSH1 0x1 PUSH1 0x40 SHL SUB DUP4 GT ISZERO PUSH2 0x1F96 JUMPI PUSH2 0x1F96 PUSH2 0x1F37 JUMP JUMPDEST PUSH2 0x1FA9 PUSH1 0x1F DUP5 ADD PUSH1 0x1F NOT AND PUSH1 0x20 ADD PUSH2 0x1F4D JUMP JUMPDEST SWAP1 POP DUP3 DUP2 MSTORE DUP4 DUP4 DUP4 ADD GT ISZERO PUSH2 0x1FBD JUMPI PUSH1 0x0 DUP1 REVERT JUMPDEST DUP3 DUP3 PUSH1 0x20 DUP4 ADD CALLDATACOPY PUSH1 0x0 PUSH1 0x20 DUP5 DUP4 ADD ADD MSTORE SWAP4 SWAP3 POP POP POP JUMP JUMPDEST PUSH1 0x0 PUSH1 0x20 DUP3 DUP5 SUB SLT ISZERO PUSH2 0x1FE6 JUMPI PUSH1 0x0 DUP1 REVERT JUMPDEST DUP2 CALLDATALOAD PUSH1 0x1 PUSH1 0x1 PUSH1 0x40 SHL SUB DUP2 GT ISZERO PUSH2 0x1FFC JUMPI PUSH1 0x0 DUP1 REVERT JUMPDEST DUP3 ADD PUSH1 0x1F DUP2 ADD DUP5 SGT PUSH2 0x200D JUMPI PUSH1 0x0 DUP1 REVERT JUMPDEST PUSH2 0x3FD DUP5 DUP3 CALLDATALOAD PUSH1 0x20 DUP5 ADD PUSH2 0x1F7D JUMP JUMPDEST PUSH1 0x0 DUP3 PUSH1 0x1F DUP4 ADD SLT PUSH2 0x202D JUMPI PUSH1 0x0 DUP1 REVERT JUMPDEST PUSH2 0xC31 DUP4 DUP4 CALLDATALOAD PUSH1 0x20 DUP6 ADD PUSH2 0x1F7D JUMP JUMPDEST PUSH1 0x0 DUP3 PUSH1 0x1F DUP4 ADD SLT PUSH2 0x204D JUMPI PUSH1 0x0 DUP1 REVERT JUMPDEST DUP2 CALLDATALOAD PUSH1 0x20 PUSH1 0x1 PUSH1 0x1 PUSH1 0x40 SHL SUB DUP1 DUP4 GT ISZERO PUSH2 0x2069 JUMPI PUSH2 0x2069 PUSH2 0x1F37 JUMP JUMPDEST DUP3 PUSH1 0x5 SHL PUSH2 0x2078 DUP4 DUP3 ADD PUSH2 0x1F4D JUMP JUMPDEST SWAP4 DUP5 MSTORE DUP6 DUP2 ADD DUP4 ADD SWAP4 DUP4 DUP2 ADD SWAP1 DUP9 DUP7 GT ISZERO PUSH2 0x2092 JUMPI PUSH1 0x0 DUP1 REVERT JUMPDEST DUP5 DUP9 ADD SWAP3 POP JUMPDEST DUP6 DUP4 LT ISZERO PUSH2 0x20CE JUMPI DUP3 CALLDATALOAD DUP5 DUP2 GT ISZERO PUSH2 0x20B0 JUMPI PUSH1 0x0 DUP1 DUP2 REVERT JUMPDEST PUSH2 0x20BE DUP11 DUP8 DUP4 DUP13 ADD ADD PUSH2 0x201C JUMP JUMPDEST DUP4 MSTORE POP SWAP2 DUP5 ADD SWAP2 SWAP1 DUP5 ADD SWAP1 PUSH2 0x2098 JUMP JUMPDEST SWAP9 SWAP8 POP POP POP POP POP POP POP POP JUMP JUMPDEST PUSH1 0x0 DUP1 PUSH1 0x0 DUP1 PUSH1 0x0 DUP1 PUSH1 0x0 DUP1 PUSH2 0x100 DUP10 DUP12 SUB SLT ISZERO PUSH2 0x20F7 JUMPI PUSH1 0x0 DUP1 REVERT JUMPDEST DUP9 CALLDATALOAD PUSH1 0x1 PUSH1 0x1 PUSH1 0x40 SHL SUB DUP1 DUP3 GT ISZERO PUSH2 0x210E JUMPI PUSH1 0x0 DUP1 REVERT JUMPDEST PUSH2 0x211A DUP13 DUP4 DUP14 ADD PUSH2 0x201C JUMP JUMPDEST SWAP10 POP PUSH1 0x20 DUP12 ADD CALLDATALOAD SWAP2 POP DUP1 DUP3 GT ISZERO PUSH2 0x2130 JUMPI PUSH1 0x0 DUP1 REVERT JUMPDEST PUSH2 0x213C DUP13 DUP4 DUP14 ADD PUSH2 0x201C JUMP JUMPDEST SWAP9 POP PUSH1 0x40 DUP12 ADD CALLDATALOAD SWAP8 POP PUSH1 0x60 DUP12 ADD CALLDATALOAD SWAP2 POP DUP1 DUP3 GT ISZERO PUSH2 0x2159 JUMPI PUSH1 0x0 DUP1 REVERT JUMPDEST PUSH2 0x2165 DUP13 DUP4 DUP14 ADD PUSH2 0x203C JUMP JUMPDEST SWAP7 POP PUSH1 0x80 DUP12 ADD CALLDATALOAD SWAP2 POP DUP1 DUP3 GT ISZERO PUSH2 0x217B JUMPI PUSH1 0x0 DUP1 REVERT JUMPDEST PUSH2 0x2187 DUP13 DUP4 DUP14 ADD PUSH2 0x201C JUMP JUMPDEST SWAP6 POP PUSH1 0xA0 DUP12 ADD CALLDATALOAD SWAP5 POP PUSH1 0xC0 DUP12 ADD CALLDATALOAD SWAP4 POP PUSH1 0xE0 DUP12 ADD CALLDATALOAD SWAP2 POP DUP1 DUP3 GT ISZERO PUSH2 0x21AB JUMPI PUSH1 0x0 DUP1 REVERT JUMPDEST POP PUSH2 0x21B8 DUP12 DUP3 DUP13 ADD PUSH2 0x201C JUMP JUMPDEST SWAP2 POP POP SWAP3 SWAP6 SWAP9 POP SWAP3 SWAP6 SWAP9 SWAP1 SWAP4 SWAP7 POP JUMP JUMPDEST PUSH1 0x0 DUP2 MLOAD DUP1 DUP5 MSTORE PUSH1 0x0 JUMPDEST DUP2 DUP2 LT ISZERO PUSH2 0x21EE JUMPI PUSH1 0x20 DUP2 DUP6 ADD DUP2 ADD MLOAD DUP7 DUP4 ADD DUP3 ADD MSTORE ADD PUSH2 0x21D2 JUMP JUMPDEST DUP2 DUP2 GT ISZERO PUSH2 0x2200 JUMPI PUSH1 0x0 PUSH1 0x20 DUP4 DUP8 ADD ADD MSTORE JUMPDEST POP PUSH1 0x1F ADD PUSH1 0x1F NOT AND SWAP3 SWAP1 SWAP3 ADD PUSH1 0x20 ADD SWAP3 SWAP2 POP POP JUMP JUMPDEST DUP3 ISZERO ISZERO DUP2 MSTORE PUSH1 0x40 PUSH1 0x20 DUP3 ADD MSTORE PUSH1 0x0 PUSH2 0x3FD PUSH1 0x40 DUP4 ADD DUP5 PUSH2 0x21C8 JUMP JUMPDEST PUSH1 0x0 PUSH1 0x20 DUP3 DUP5 SUB SLT ISZERO PUSH2 0x2242 JUMPI PUSH1 0x0 DUP1 REVERT JUMPDEST DUP2 CALLDATALOAD PUSH1 0x1 PUSH1 0x1 PUSH1 0xA0 SHL SUB DUP2 AND DUP2 EQ PUSH2 0xC31 JUMPI PUSH1 0x0 DUP1 REVERT JUMPDEST PUSH1 0x0 DUP2 MLOAD DUP1 DUP5 MSTORE PUSH1 0x20 DUP1 DUP6 ADD DUP1 DUP2 SWAP7 POP DUP4 PUSH1 0x5 SHL DUP2 ADD SWAP2 POP DUP3 DUP7 ADD PUSH1 0x0 JUMPDEST DUP6 DUP2 LT ISZERO PUSH2 0x22A1 JUMPI DUP3 DUP5 SUB DUP10 MSTORE PUSH2 0x228F DUP5 DUP4 MLOAD PUSH2 0x21C8 JUMP JUMPDEST SWAP9 DUP6 ADD SWAP9 SWAP4 POP SWAP1 DUP5 ADD SWAP1 PUSH1 0x1 ADD PUSH2 0x2277 JUMP JUMPDEST POP SWAP2 SWAP8 SWAP7 POP POP POP POP POP POP POP JUMP JUMPDEST PUSH1 0x0 DUP2 MLOAD DUP1 DUP5 MSTORE PUSH1 0x20 DUP1 DUP6 ADD SWAP5 POP DUP1 DUP5 ADD PUSH1 0x0 JUMPDEST DUP4 DUP2 LT ISZERO PUSH2 0x22DE JUMPI DUP2 MLOAD DUP8 MSTORE SWAP6 DUP3 ADD SWAP6 SWAP1 DUP3 ADD SWAP1 PUSH1 0x1 ADD PUSH2 0x22C2 JUMP JUMPDEST POP SWAP5 SWAP6 SWAP5 POP POP POP POP POP JUMP JUMPDEST PUSH1 0x0 DUP2 MLOAD DUP1 DUP5 MSTORE PUSH1 0x20 DUP1 DUP6 ADD SWAP5 POP DUP1 DUP5 ADD PUSH1 0x0 JUMPDEST DUP4 DUP2 LT ISZERO PUSH2 0x22DE JUMPI DUP2 MLOAD PUSH1 0x1 PUSH1 0x1 PUSH1 0xA0 SHL SUB AND DUP8 MSTORE SWAP6 DUP3 ADD SWAP6 SWAP1 DUP3 ADD SWAP1 PUSH1 0x1 ADD PUSH2 0x22FD JUMP JUMPDEST PUSH1 0x0 PUSH2 0x1A0 DUP3 MLOAD DUP5 MSTORE PUSH1 0x20 DUP4 ADD MLOAD DUP2 PUSH1 0x20 DUP7 ADD MSTORE PUSH2 0x2342 DUP3 DUP7 ADD DUP3 PUSH2 0x21C8 JUMP JUMPDEST SWAP2 POP POP PUSH1 0x40 DUP4 ADD MLOAD DUP5 DUP3 SUB PUSH1 0x40 DUP7 ADD MSTORE PUSH2 0x235C DUP3 DUP3 PUSH2 0x21C8 JUMP JUMPDEST SWAP2 POP POP PUSH1 0x60 DUP4 ADD MLOAD PUSH1 0x60 DUP6 ADD MSTORE PUSH1 0x80 DUP4 ADD MLOAD PUSH1 0x80 DUP6 ADD MSTORE PUSH1 0xA0 DUP4 ADD MLOAD PUSH1 0xA0 DUP6 ADD MSTORE PUSH1 0xC0 DUP4 ADD MLOAD DUP5 DUP3 SUB PUSH1 0xC0 DUP7 ADD MSTORE PUSH2 0x2394 DUP3 DUP3 PUSH2 0x2259 JUMP JUMPDEST SWAP2 POP POP PUSH1 0xE0 DUP4 ADD MLOAD DUP5 DUP3 SUB PUSH1 0xE0 DUP7 ADD MSTORE PUSH2 0x23AE DUP3 DUP3 PUSH2 0x21C8 JUMP JUMPDEST SWAP2 POP POP PUSH2 0x100 DUP1 DUP5 ADD MLOAD DUP6 DUP4 SUB DUP3 DUP8 ADD MSTORE PUSH2 0x23C9 DUP4 DUP3 PUSH2 0x22AE JUMP JUMPDEST SWAP3 POP POP POP PUSH2 0x120 DUP1 DUP5 ADD MLOAD DUP6 DUP4 SUB DUP3 DUP8 ADD MSTORE PUSH2 0x23E5 DUP4 DUP3 PUSH2 0x22E9 JUMP JUMPDEST SWAP3 POP POP POP PUSH2 0x140 DUP1 DUP5 ADD MLOAD DUP2 DUP7 ADD MSTORE POP PUSH2 0x160 DUP1 DUP5 ADD MLOAD DUP2 DUP7 ADD MSTORE POP PUSH2 0x180 DUP1 DUP5 ADD MLOAD DUP6 DUP4 SUB DUP3 DUP8 ADD MSTORE PUSH2 0x2419 DUP4 DUP3 PUSH2 0x21C8 JUMP JUMPDEST SWAP7 SWAP6 POP POP POP POP POP POP JUMP JUMPDEST PUSH1 0x0 PUSH1 0x20 DUP1 DUP4 ADD DUP2 DUP5 MSTORE DUP1 DUP6 MLOAD DUP1 DUP4 MSTORE PUSH1 0x40 DUP7 ADD SWAP2 POP PUSH1 0x40 DUP2 PUSH1 0x5 SHL DUP8 ADD ADD SWAP3 POP DUP4 DUP8 ADD PUSH1 0x0 JUMPDEST DUP3 DUP2 LT ISZERO PUSH2 0x2478 JUMPI PUSH1 0x3F NOT DUP9 DUP7 SUB ADD DUP5 MSTORE PUSH2 0x2466 DUP6 DUP4 MLOAD PUSH2 0x2322 JUMP JUMPDEST SWAP5 POP SWAP3 DUP6 ADD SWAP3 SWAP1 DUP6 ADD SWAP1 PUSH1 0x1 ADD PUSH2 0x244A JUMP JUMPDEST POP SWAP3 SWAP8 SWAP7 POP POP POP POP POP POP POP JUMP JUMPDEST PUSH1 0x1 PUSH1 0x1 PUSH1 0xA0 SHL SUB SWAP2 SWAP1 SWAP2 AND DUP2 MSTORE PUSH1 0x20 ADD SWAP1 JUMP JUMPDEST PUSH1 0x20 DUP2 MSTORE PUSH1 0x0 PUSH2 0xC31 PUSH1 0x20 DUP4 ADD DUP5 PUSH2 0x2322 JUMP JUMPDEST PUSH1 0x0 DUP1 PUSH1 0x0 DUP1 PUSH1 0x0 DUP1 PUSH1 0x0 DUP1 PUSH1 0x0 PUSH2 0x120 DUP11 DUP13 SUB SLT ISZERO PUSH2 0x24CB JUMPI PUSH1 0x0 DUP1 REVERT JUMPDEST DUP10 CALLDATALOAD SWAP9 POP PUSH1 0x20 DUP11 ADD CALLDATALOAD PUSH1 0x1 PUSH1 0x1 PUSH1 0x40 SHL SUB DUP1 DUP3 GT ISZERO PUSH2 0x24E9 JUMPI PUSH1 0x0 DUP1 REVERT JUMPDEST PUSH2 0x24F5 DUP14 DUP4 DUP15 ADD PUSH2 0x201C JUMP JUMPDEST SWAP10 POP PUSH1 0x40 DUP13 ADD CALLDATALOAD SWAP2 POP DUP1 DUP3 GT ISZERO PUSH2 0x250B JUMPI PUSH1 0x0 DUP1 REVERT JUMPDEST PUSH2 0x2517 DUP14 DUP4 DUP15 ADD PUSH2 0x201C JUMP JUMPDEST SWAP9 POP PUSH1 0x60 DUP13 ADD CALLDATALOAD SWAP8 POP PUSH1 0x80 DUP13 ADD CALLDATALOAD SWAP2 POP DUP1 DUP3 GT ISZERO PUSH2 0x2534 JUMPI PUSH1 0x0 DUP1 REVERT JUMPDEST PUSH2 0x2540 DUP14 DUP4 DUP15 ADD PUSH2 0x203C JUMP JUMPDEST SWAP7 POP PUSH1 0xA0 DUP13 ADD CALLDATALOAD SWAP2 POP DUP1 DUP3 GT ISZERO PUSH2 0x2556 JUMPI PUSH1 0x0 DUP1 REVERT JUMPDEST PUSH2 0x2562 DUP14 DUP4 DUP15 ADD PUSH2 0x201C JUMP JUMPDEST SWAP6 POP PUSH1 0xC0 DUP13 ADD CALLDATALOAD SWAP5 POP PUSH1 0xE0 DUP13 ADD CALLDATALOAD SWAP4 POP PUSH2 0x100 DUP13 ADD CALLDATALOAD SWAP2 POP DUP1 DUP3 GT ISZERO PUSH2 0x2587 JUMPI PUSH1 0x0 DUP1 REVERT JUMPDEST POP PUSH2 0x2594 DUP13 DUP3 DUP14 ADD PUSH2 0x201C JUMP JUMPDEST SWAP2 POP POP SWAP3 SWAP6 SWAP9 POP SWAP3 SWAP6 SWAP9 POP SWAP3 SWAP6 SWAP9 JUMP JUMPDEST PUSH1 0x0 PUSH2 0x140 DUP13 DUP4 MSTORE DUP1 PUSH1 0x20 DUP5 ADD MSTORE PUSH2 0x25BE DUP2 DUP5 ADD DUP14 PUSH2 0x21C8 JUMP JUMPDEST SWAP1 POP DUP3 DUP2 SUB PUSH1 0x40 DUP5 ADD MSTORE PUSH2 0x25D2 DUP2 DUP13 PUSH2 0x21C8 JUMP JUMPDEST SWAP1 POP DUP10 PUSH1 0x60 DUP5 ADD MSTORE DUP9 PUSH1 0x80 DUP5 ADD MSTORE DUP8 PUSH1 0xA0 DUP5 ADD MSTORE DUP3 DUP2 SUB PUSH1 0xC0 DUP5 ADD MSTORE PUSH2 0x25F8 DUP2 DUP9 PUSH2 0x21C8 JUMP JUMPDEST SWAP1 POP DUP6 PUSH1 0xE0 DUP5 ADD MSTORE DUP5 PUSH2 0x100 DUP5 ADD MSTORE DUP3 DUP2 SUB PUSH2 0x120 DUP5 ADD MSTORE PUSH2 0x261A DUP2 DUP6 PUSH2 0x21C8 JUMP JUMPDEST SWAP14 SWAP13 POP POP POP POP POP POP POP POP POP POP POP POP POP JUMP JUMPDEST PUSH1 0x20 DUP1 DUP3 MSTORE PUSH1 0x17 SWAP1 DUP3 ADD MSTORE PUSH23 0x111BDB985D1A5BDB88191BD95CC81B9BDD08195E1A5CDD PUSH1 0x4A SHL PUSH1 0x40 DUP3 ADD MSTORE PUSH1 0x60 ADD SWAP1 JUMP JUMPDEST DUP1 MLOAD PUSH1 0x1 PUSH1 0x1 PUSH1 0x50 SHL SUB DUP2 AND DUP2 EQ PUSH2 0x2673 JUMPI PUSH1 0x0 DUP1 REVERT JUMPDEST SWAP2 SWAP1 POP JUMP JUMPDEST PUSH1 0x0 DUP1 PUSH1 0x0 DUP1 PUSH1 0x0 PUSH1 0xA0 DUP7 DUP9 SUB SLT ISZERO PUSH2 0x2690 JUMPI PUSH1 0x0 DUP1 REVERT JUMPDEST PUSH2 0x2699 DUP7 PUSH2 0x265C JUMP JUMPDEST SWAP5 POP PUSH1 0x20 DUP7 ADD MLOAD SWAP4 POP PUSH1 0x40 DUP7 ADD MLOAD SWAP3 POP PUSH1 0x60 DUP7 ADD MLOAD SWAP2 POP PUSH2 0x26BC PUSH1 0x80 DUP8 ADD PUSH2 0x265C JUMP JUMPDEST SWAP1 POP SWAP3 SWAP6 POP SWAP3 SWAP6 SWAP1 SWAP4 POP JUMP JUMPDEST PUSH4 0x4E487B71 PUSH1 0xE0 SHL PUSH1 0x0 MSTORE PUSH1 0x11 PUSH1 0x4 MSTORE PUSH1 0x24 PUSH1 0x0 REVERT JUMPDEST PUSH1 0x0 DUP2 PUSH1 0x0 NOT DIV DUP4 GT DUP3 ISZERO ISZERO AND ISZERO PUSH2 0x26F8 JUMPI PUSH2 0x26F8 PUSH2 0x26C8 JUMP JUMPDEST POP MUL SWAP1 JUMP JUMPDEST PUSH1 0x0 DUP3 PUSH2 0x271A JUMPI PUSH4 0x4E487B71 PUSH1 0xE0 SHL PUSH1 0x0 MSTORE PUSH1 0x12 PUSH1 0x4 MSTORE PUSH1 0x24 PUSH1 0x0 REVERT JUMPDEST POP DIV SWAP1 JUMP JUMPDEST PUSH1 0x20 DUP1 DUP3 MSTORE PUSH1 0x1A SWAP1 DUP3 ADD MSTORE PUSH26 0x496E76616C696420737461727420616E6420656E642074696D65 PUSH1 0x30 SHL PUSH1 0x40 DUP3 ADD MSTORE PUSH1 0x60 ADD SWAP1 JUMP JUMPDEST PUSH1 0x0 PUSH1 0x0 NOT DUP3 EQ ISZERO PUSH2 0x2767 JUMPI PUSH2 0x2767 PUSH2 0x26C8 JUMP JUMPDEST POP PUSH1 0x1 ADD SWAP1 JUMP JUMPDEST PUSH4 0x4E487B71 PUSH1 0xE0 SHL PUSH1 0x0 MSTORE PUSH1 0x32 PUSH1 0x4 MSTORE PUSH1 0x24 PUSH1 0x0 REVERT JUMPDEST PUSH1 0x1 DUP2 DUP2 SHR SWAP1 DUP3 AND DUP1 PUSH2 0x2798 JUMPI PUSH1 0x7F DUP3 AND SWAP2 POP JUMPDEST PUSH1 0x20 DUP3 LT DUP2 EQ ISZERO PUSH2 0x13CF JUMPI PUSH4 0x4E487B71 PUSH1 0xE0 SHL PUSH1 0x0 MSTORE PUSH1 0x22 PUSH1 0x4 MSTORE PUSH1 0x24 PUSH1 0x0 REVERT JUMPDEST PUSH1 0x0 PUSH1 0x20 DUP3 DUP5 SUB SLT ISZERO PUSH2 0x27CB JUMPI PUSH1 0x0 DUP1 REVERT JUMPDEST POP MLOAD SWAP2 SWAP1 POP JUMP JUMPDEST PUSH1 0x0 DUP3 NOT DUP3 GT ISZERO PUSH2 0x27E5 JUMPI PUSH2 0x27E5 PUSH2 0x26C8 JUMP JUMPDEST POP ADD SWAP1 JUMP JUMPDEST PUSH1 0x0 DUP3 DUP3 LT ISZERO PUSH2 0x27FC JUMPI PUSH2 0x27FC PUSH2 0x26C8 JUMP JUMPDEST POP SUB SWAP1 JUMP JUMPDEST PUSH1 0x1 DUP1 PUSH1 0xA0 SHL SUB DUP5 AND DUP2 MSTORE DUP3 PUSH1 0x20 DUP3 ADD MSTORE PUSH1 0x60 PUSH1 0x40 DUP3 ADD MSTORE PUSH1 0x0 PUSH2 0x2828 PUSH1 0x60 DUP4 ADD DUP5 PUSH2 0x21C8 JUMP JUMPDEST SWAP6 SWAP5 POP POP POP POP POP JUMP JUMPDEST PUSH1 0x0 PUSH1 0x20 DUP3 DUP5 SUB SLT ISZERO PUSH2 0x2843 JUMPI PUSH1 0x0 DUP1 REVERT JUMPDEST DUP2 MLOAD DUP1 ISZERO ISZERO DUP2 EQ PUSH2 0xC31 JUMPI PUSH1 0x0 DUP1 REVERT INVALID LOG2 PUSH5 0x6970667358 0x22 SLT KECCAK256 0xAB MUL ADDMOD SGT MLOAD AND REVERT PUSH8 0xE6EC29B8964D963D SWAP5 PUSH3 0xB848AF 0x28 SLOAD LOG2 JUMP PUSH26 0x1FDFFAB2584C64736F6C63430008090033000000000000000000 "},"methodIdentifiers":{"MIN_THRESHOLD_PERCENTAGE()":"e39fea2d","THRESHOLD()":"785ffb37","addDonation(uint256,uint256)":"d87ffb70","checkUpkeep(bytes)":"6e04ff0d","createDonation(string,string,uint256,string[],string,uint256,uint256,string)":"669c2f81","donationAccumulated()":"45f5d7ac","donationCount()":"2abfab4d","donations(uint256)":"f8626af8","editDonation(uint256,string,string,uint256,string[],string,uint256,uint256,string)":"f12c754c","endTime()":"3197cbb6","getDonation(uint256)":"ef07a81f","getDonationValueInUSD(uint256)":"2cb8f793","getDonations()":"e25f8416","getRandomNumber(uint256)":"b37217a4","getUserDonations(address)":"732435b2","hideDonation(uint256)":"deb0d883","owner()":"8da5cb5b","performUpkeep(bytes)":"4585e33b","randomResult()":"42619f66","rawFulfillRandomness(bytes32,uint256)":"94985ddd","scheduleEndDonation(uint256,uint256)":"1cc4654d"}}}}}