{
  "_format": "hh-sol-artifact-1",
  "contractName": "World3",
  "sourceName": "contracts/World3.sol",
  "abi": [
    {
      "inputs": [
        {
          "internalType": "address",
          "name": "_priceFeedAddress",
          "type": "address"
        },
        {
          "internalType": "address",
          "name": "_vrfCoordinator",
          "type": "address"
        },
        {
          "internalType": "address",
          "name": "_linkToken",
          "type": "address"
        },
        {
          "internalType": "bytes32",
          "name": "_keyHash",
          "type": "bytes32"
        },
        {
          "internalType": "uint256",
          "name": "_fee",
          "type": "uint256"
        }
      ],
      "stateMutability": "nonpayable",
      "type": "constructor"
    },
    {
      "inputs": [],
      "name": "MIN_THRESHOLD_PERCENTAGE",
      "outputs": [
        {
          "internalType": "uint256",
          "name": "",
          "type": "uint256"
        }
      ],
      "stateMutability": "view",
      "type": "function"
    },
    {
      "inputs": [],
      "name": "THRESHOLD",
      "outputs": [
        {
          "internalType": "uint256",
          "name": "",
          "type": "uint256"
        }
      ],
      "stateMutability": "view",
      "type": "function"
    },
    {
      "inputs": [
        {
          "internalType": "uint256",
          "name": "_donationId",
          "type": "uint256"
        },
        {
          "internalType": "uint256",
          "name": "_amount",
          "type": "uint256"
        }
      ],
      "name": "addDonation",
      "outputs": [],
      "stateMutability": "nonpayable",
      "type": "function"
    },
    {
      "inputs": [
        {
          "internalType": "bytes",
          "name": "_data",
          "type": "bytes"
        }
      ],
      "name": "checkUpkeep",
      "outputs": [
        {
          "internalType": "bool",
          "name": "upkeepNeeded",
          "type": "bool"
        },
        {
          "internalType": "bytes",
          "name": "performData",
          "type": "bytes"
        }
      ],
      "stateMutability": "view",
      "type": "function"
    },
    {
      "inputs": [
        {
          "internalType": "string",
          "name": "_name",
          "type": "string"
        },
        {
          "internalType": "string",
          "name": "_description",
          "type": "string"
        },
        {
          "internalType": "uint256",
          "name": "_goal",
          "type": "uint256"
        },
        {
          "internalType": "string[]",
          "name": "_pictures",
          "type": "string[]"
        },
        {
          "internalType": "string",
          "name": "_category",
          "type": "string"
        },
        {
          "internalType": "uint256",
          "name": "_startTime",
          "type": "uint256"
        },
        {
          "internalType": "uint256",
          "name": "_endTime",
          "type": "uint256"
        },
        {
          "internalType": "string",
          "name": "_county",
          "type": "string"
        }
      ],
      "name": "createDonation",
      "outputs": [],
      "stateMutability": "nonpayable",
      "type": "function"
    },
    {
      "inputs": [],
      "name": "donationAccumulated",
      "outputs": [
        {
          "internalType": "uint256",
          "name": "",
          "type": "uint256"
        }
      ],
      "stateMutability": "view",
      "type": "function"
    },
    {
      "inputs": [],
      "name": "donationCount",
      "outputs": [
        {
          "internalType": "uint256",
          "name": "",
          "type": "uint256"
        }
      ],
      "stateMutability": "view",
      "type": "function"
    },
    {
      "inputs": [
        {
          "internalType": "uint256",
          "name": "",
          "type": "uint256"
        }
      ],
      "name": "donations",
      "outputs": [
        {
          "internalType": "uint256",
          "name": "donationId",
          "type": "uint256"
        },
        {
          "internalType": "string",
          "name": "name",
          "type": "string"
        },
        {
          "internalType": "string",
          "name": "description",
          "type": "string"
        },
        {
          "internalType": "uint256",
          "name": "goal",
          "type": "uint256"
        },
        {
          "internalType": "uint256",
          "name": "amountRaised",
          "type": "uint256"
        },
        {
          "internalType": "uint256",
          "name": "toGo",
          "type": "uint256"
        },
        {
          "internalType": "string",
          "name": "category",
          "type": "string"
        },
        {
          "internalType": "uint256",
          "name": "startTime",
          "type": "uint256"
        },
        {
          "internalType": "uint256",
          "name": "endTime",
          "type": "uint256"
        },
        {
          "internalType": "string",
          "name": "county",
          "type": "string"
        }
      ],
      "stateMutability": "view",
      "type": "function"
    },
    {
      "inputs": [
        {
          "internalType": "uint256",
          "name": "_donationId",
          "type": "uint256"
        },
        {
          "internalType": "string",
          "name": "_name",
          "type": "string"
        },
        {
          "internalType": "string",
          "name": "_description",
          "type": "string"
        },
        {
          "internalType": "uint256",
          "name": "_goal",
          "type": "uint256"
        },
        {
          "internalType": "string[]",
          "name": "_pictures",
          "type": "string[]"
        },
        {
          "internalType": "string",
          "name": "_category",
          "type": "string"
        },
        {
          "internalType": "uint256",
          "name": "_startTime",
          "type": "uint256"
        },
        {
          "internalType": "uint256",
          "name": "_endTime",
          "type": "uint256"
        },
        {
          "internalType": "string",
          "name": "_county",
          "type": "string"
        }
      ],
      "name": "editDonation",
      "outputs": [],
      "stateMutability": "nonpayable",
      "type": "function"
    },
    {
      "inputs": [],
      "name": "endTime",
      "outputs": [
        {
          "internalType": "uint256",
          "name": "",
          "type": "uint256"
        }
      ],
      "stateMutability": "view",
      "type": "function"
    },
    {
      "inputs": [
        {
          "internalType": "uint256",
          "name": "_donationId",
          "type": "uint256"
        }
      ],
      "name": "getDonation",
      "outputs": [
        {
          "components": [
            {
              "internalType": "uint256",
              "name": "donationId",
              "type": "uint256"
            },
            {
              "internalType": "string",
              "name": "name",
              "type": "string"
            },
            {
              "internalType": "string",
              "name": "description",
              "type": "string"
            },
            {
              "internalType": "uint256",
              "name": "goal",
              "type": "uint256"
            },
            {
              "internalType": "uint256",
              "name": "amountRaised",
              "type": "uint256"
            },
            {
              "internalType": "uint256",
              "name": "toGo",
              "type": "uint256"
            },
            {
              "internalType": "string[]",
              "name": "pictures",
              "type": "string[]"
            },
            {
              "internalType": "string",
              "name": "category",
              "type": "string"
            },
            {
              "internalType": "uint256[]",
              "name": "donorAmounts",
              "type": "uint256[]"
            },
            {
              "internalType": "address[]",
              "name": "donors",
              "type": "address[]"
            },
            {
              "internalType": "uint256",
              "name": "startTime",
              "type": "uint256"
            },
            {
              "internalType": "uint256",
              "name": "endTime",
              "type": "uint256"
            },
            {
              "internalType": "string",
              "name": "county",
              "type": "string"
            }
          ],
          "internalType": "struct World3.Donation",
          "name": "",
          "type": "tuple"
        }
      ],
      "stateMutability": "view",
      "type": "function"
    },
    {
      "inputs": [
        {
          "internalType": "uint256",
          "name": "_donationId",
          "type": "uint256"
        }
      ],
      "name": "getDonationValueInUSD",
      "outputs": [
        {
          "internalType": "uint256",
          "name": "",
          "type": "uint256"
        }
      ],
      "stateMutability": "view",
      "type": "function"
    },
    {
      "inputs": [],
      "name": "getDonations",
      "outputs": [
        {
          "components": [
            {
              "internalType": "uint256",
              "name": "donationId",
              "type": "uint256"
            },
            {
              "internalType": "string",
              "name": "name",
              "type": "string"
            },
            {
              "internalType": "string",
              "name": "description",
              "type": "string"
            },
            {
              "internalType": "uint256",
              "name": "goal",
              "type": "uint256"
            },
            {
              "internalType": "uint256",
              "name": "amountRaised",
              "type": "uint256"
            },
            {
              "internalType": "uint256",
              "name": "toGo",
              "type": "uint256"
            },
            {
              "internalType": "string[]",
              "name": "pictures",
              "type": "string[]"
            },
            {
              "internalType": "string",
              "name": "category",
              "type": "string"
            },
            {
              "internalType": "uint256[]",
              "name": "donorAmounts",
              "type": "uint256[]"
            },
            {
              "internalType": "address[]",
              "name": "donors",
              "type": "address[]"
            },
            {
              "internalType": "uint256",
              "name": "startTime",
              "type": "uint256"
            },
            {
              "internalType": "uint256",
              "name": "endTime",
              "type": "uint256"
            },
            {
              "internalType": "string",
              "name": "county",
              "type": "string"
            }
          ],
          "internalType": "struct World3.Donation[]",
          "name": "",
          "type": "tuple[]"
        }
      ],
      "stateMutability": "view",
      "type": "function"
    },
    {
      "inputs": [
        {
          "internalType": "uint256",
          "name": "_donationId",
          "type": "uint256"
        }
      ],
      "name": "getRandomNumber",
      "outputs": [
        {
          "internalType": "bytes32",
          "name": "requestId",
          "type": "bytes32"
        }
      ],
      "stateMutability": "nonpayable",
      "type": "function"
    },
    {
      "inputs": [
        {
          "internalType": "address",
          "name": "_user",
          "type": "address"
        }
      ],
      "name": "getUserDonations",
      "outputs": [
        {
          "components": [
            {
              "internalType": "uint256",
              "name": "donationId",
              "type": "uint256"
            },
            {
              "internalType": "string",
              "name": "name",
              "type": "string"
            },
            {
              "internalType": "string",
              "name": "description",
              "type": "string"
            },
            {
              "internalType": "uint256",
              "name": "goal",
              "type": "uint256"
            },
            {
              "internalType": "uint256",
              "name": "amountRaised",
              "type": "uint256"
            },
            {
              "internalType": "uint256",
              "name": "toGo",
              "type": "uint256"
            },
            {
              "internalType": "string[]",
              "name": "pictures",
              "type": "string[]"
            },
            {
              "internalType": "string",
              "name": "category",
              "type": "string"
            },
            {
              "internalType": "uint256[]",
              "name": "donorAmounts",
              "type": "uint256[]"
            },
            {
              "internalType": "address[]",
              "name": "donors",
              "type": "address[]"
            },
            {
              "internalType": "uint256",
              "name": "startTime",
              "type": "uint256"
            },
            {
              "internalType": "uint256",
              "name": "endTime",
              "type": "uint256"
            },
            {
              "internalType": "string",
              "name": "county",
              "type": "string"
            }
          ],
          "internalType": "struct World3.Donation[]",
          "name": "",
          "type": "tuple[]"
        }
      ],
      "stateMutability": "view",
      "type": "function"
    },
    {
      "inputs": [
        {
          "internalType": "uint256",
          "name": "_donationId",
          "type": "uint256"
        }
      ],
      "name": "hideDonation",
      "outputs": [],
      "stateMutability": "nonpayable",
      "type": "function"
    },
    {
      "inputs": [],
      "name": "owner",
      "outputs": [
        {
          "internalType": "address",
          "name": "",
          "type": "address"
        }
      ],
      "stateMutability": "view",
      "type": "function"
    },
    {
      "inputs": [
        {
          "internalType": "bytes",
          "name": "_performData",
          "type": "bytes"
        }
      ],
      "name": "performUpkeep",
      "outputs": [],
      "stateMutability": "nonpayable",
      "type": "function"
    },
    {
      "inputs": [],
      "name": "randomResult",
      "outputs": [
        {
          "internalType": "uint256",
          "name": "",
          "type": "uint256"
        }
      ],
      "stateMutability": "view",
      "type": "function"
    },
    {
      "inputs": [
        {
          "internalType": "bytes32",
          "name": "requestId",
          "type": "bytes32"
        },
        {
          "internalType": "uint256",
          "name": "randomness",
          "type": "uint256"
        }
      ],
      "name": "rawFulfillRandomness",
      "outputs": [],
      "stateMutability": "nonpayable",
      "type": "function"
    },
    {
      "inputs": [
        {
          "internalType": "uint256",
          "name": "_donationId",
          "type": "uint256"
        },
        {
          "internalType": "uint256",
          "name": "_endTime",
          "type": "uint256"
        }
      ],
      "name": "scheduleEndDonation",
      "outputs": [],
      "stateMutability": "nonpayable",
      "type": "function"
    }
  ],
  "bytecode": "0x60c06040523480156200001157600080fd5b50604051620029a7380380620029a783398101604081905262000034916200008d565b6001600160a01b0393841660a052918316608052600480546001600160a01b0319169490931693909317909155600591909155600655620000ea565b80516001600160a01b03811681146200008857600080fd5b919050565b600080600080600060a08688031215620000a657600080fd5b620000b18662000070565b9450620000c16020870162000070565b9350620000d16040870162000070565b6060870151608090970151959894975095949392505050565b60805160a0516128896200011e60003960008181610a990152611bbd015260008181610b130152611b8e01526128896000f3fe608060405234801561001057600080fd5b50600436106101075760003560e01c80631cc4654d1461010c5780632abfab4d146101215780632cb8f7931461013d5780633197cbb61461015057806342619f66146101595780634585e33b1461016257806345f5d7ac14610175578063669c2f811461017e5780636e04ff0d14610191578063732435b2146101b7578063785ffb37146101d75780638da5cb5b146101df57806394985ddd146101ed578063b37217a414610200578063d87ffb7014610213578063deb0d88314610226578063e25f841614610239578063e39fea2d14610241578063ef07a81f14610249578063f12c754c14610269578063f8626af81461027c575b600080fd5b61011f61011a366004611efc565b6102a5565b005b61012a60035481565b6040519081526020015b60405180910390f35b61012a61014b366004611f1e565b61034d565b61012a60095481565b61012a60075481565b61011f610170366004611fd4565b610405565b61012a60085481565b61011f61018c3660046120da565b610458565b6101a961019f366004611fd4565b6008546064111591565b604051610134929190612215565b6101ca6101c5366004612230565b61053e565b6040516101349190612423565b61012a606481565b336040516101349190612485565b61011f6101fb366004611efc565b610a8e565b61012a61020e366004611f1e565b610b0c565b61011f610221366004611efc565b610c38565b61011f610234366004611f1e565b610dee565b6101ca610eaf565b61012a603281565b61025c610257366004611f1e565b6113d5565b6040516101349190612499565b61011f6102773660046124ac565b61183b565b61028f61028a366004611f1e565b61191d565b6040516101349a999897969594939291906125a4565b6102b3565b60405180910390fd5b8160035481106102d55760405162461bcd60e51b81526004016102aa9061262b565b6000838152600260205260409020600a81015483116103425760405162461bcd60e51b815260206004820152602360248201527f456e642074696d652073686f756c642062652061667465722073746172742074604482015262696d6560e81b60648201526084016102aa565b600b01919091555050565b600081815260026020526040808220600480548351633fabe5a360e21b81529351929385936001600160a01b039092169263feaf968c928282019260a09290829003018186803b1580156103a057600080fd5b505afa1580156103b4573d6000803e3d6000fd5b505050506040513d601f19601f820116820180604052508101906103d89190612678565b5050509150506305f5e1008183600401546103f391906126de565b6103fd91906126fd565b949350505050565b606460085410156104505760405162461bcd60e51b8152602060048201526015602482015274151a1c995cda1bdb19081b9bdd081c995858da1959605a1b60448201526064016102aa565b506000600855565b8183106104775760405162461bcd60e51b81526004016102aa9061271f565b600354600081815260026020908152604090912091825589516104a2916001840191908c0190611d10565b5087516104b890600283019060208b0190611d10565b5060038101879055600060048201556005810187905585516104e39060068301906020890190611d94565b5084516104f99060078301906020880190611d10565b50600a8101849055600b8101839055815161051d90600c8301906020850190611d10565b506003805490600061052e83612753565b9190505550505050505050505050565b6001600160a01b038116600090815260016020908152604080832080548251818502810185019093528083526060949383018282801561059d57602002820191906000526020600020905b815481526020019060010190808311610589575b50505050509050600081516001600160401b038111156105bf576105bf611f37565b6040519080825280602002602001820160405280156105f857816020015b6105e5611ded565b8152602001906001900390816105dd5790505b50905060005b8251811015610a86576002600084838151811061061d5761061d61276e565b60200260200101518152602001908152602001600020604051806101a00160405290816000820154815260200160018201805461065990612784565b80601f016020809104026020016040519081016040528092919081815260200182805461068590612784565b80156106d25780601f106106a7576101008083540402835291602001916106d2565b820191906000526020600020905b8154815290600101906020018083116106b557829003601f168201915b505050505081526020016002820180546106eb90612784565b80601f016020809104026020016040519081016040528092919081815260200182805461071790612784565b80156107645780601f1061073957610100808354040283529160200191610764565b820191906000526020600020905b81548152906001019060200180831161074757829003601f168201915b5050505050815260200160038201548152602001600482015481526020016005820154815260200160068201805480602002602001604051908101604052809291908181526020016000905b8282101561085c5783829060005260206000200180546107cf90612784565b80601f01602080910402602001604051908101604052809291908181526020018280546107fb90612784565b80156108485780601f1061081d57610100808354040283529160200191610848565b820191906000526020600020905b81548152906001019060200180831161082b57829003601f168201915b5050505050815260200190600101906107b0565b50505050815260200160078201805461087490612784565b80601f01602080910402602001604051908101604052809291908181526020018280546108a090612784565b80156108ed5780601f106108c2576101008083540402835291602001916108ed565b820191906000526020600020905b8154815290600101906020018083116108d057829003601f168201915b505050505081526020016008820180548060200260200160405190810160405280929190818152602001828054801561094557602002820191906000526020600020905b815481526020019060010190808311610931575b50505050508152602001600982018054806020026020016040519081016040528092919081815260200182805480156109a757602002820191906000526020600020905b81546001600160a01b03168152600190910190602001808311610989575b50505050508152602001600a8201548152602001600b8201548152602001600c820180546109d490612784565b80601f0160208091040260200160405190810160405280929190818152602001828054610a0090612784565b8015610a4d5780601f10610a2257610100808354040283529160200191610a4d565b820191906000526020600020905b815481529060010190602001808311610a3057829003601f168201915b505050505081525050828281518110610a6857610a6861276e565b60200260200101819052508080610a7e90612753565b9150506105fe565b509392505050565b336001600160a01b037f00000000000000000000000000000000000000000000000000000000000000001614610b065760405162461bcd60e51b815260206004820152601f60248201527f4f6e6c7920565246436f6f7264696e61746f722063616e2066756c66696c6c0060448201526064016102aa565b60075550565b60006006547f00000000000000000000000000000000000000000000000000000000000000006001600160a01b03166370a08231306040518263ffffffff1660e01b8152600401610b5d9190612485565b60206040518083038186803b158015610b7557600080fd5b505afa158015610b89573d6000803e3d6000fd5b505050506040513d601f19601f82011682018060405250810190610bad91906127b9565b1015610c135760405162461bcd60e51b815260206004820152602f60248201527f4e6f7420656e6f756768204c494e4b20746f6b656e7320746f2072657175657360448201526e3a103930b73237b690373ab6b132b960891b60648201526084016102aa565b6000828152600260205260409020600554600654610c319190611b8a565b9392505050565b816003548110610c5a5760405162461bcd60e51b81526004016102aa9061262b565b6000838152600260205260409020600a810154421015610cc65760405162461bcd60e51b815260206004820152602160248201527f446f6e6174696f6e2063616d706169676e20686173206e6f74207374617274656044820152601960fa1b60648201526084016102aa565b80600b0154421115610d185760405162461bcd60e51b815260206004820152601b60248201527a111bdb985d1a5bdb8818d85b5c185a59db881a185cc8195b991959602a1b60448201526064016102aa565b82816004016000828254610d2c91906127d2565b909155505060048101546003820154610d4591906127ea565b6005820155600881018054600181810183556000928352602080842090920186905560098401805480830182559084528284200180546001600160a01b031916339081179091558352808252604083208054918201815583529120018490556003810154606490610db8906032906126de565b610dc291906126fd565b816004015410610de857806004015460086000828254610de291906127d2565b90915550505b50505050565b806003548110610e105760405162461bcd60e51b81526004016102aa9061262b565b600082815260026020526040812081815590610e2f6001830182611e55565b610e3d600283016000611e55565b600382016000905560048201600090556005820160009055600682016000610e659190611e92565b610e73600783016000611e55565b610e81600883016000611eb0565b610e8f600983016000611eb0565b600a820160009055600b820160009055600c82016000610de89190611e55565b606060006003546001600160401b03811115610ecd57610ecd611f37565b604051908082528060200260200182016040528015610f0657816020015b610ef3611ded565b815260200190600190039081610eeb5790505b50905060005b6003548110156113cf57600081815260026020526040812060098101549091906001600160401b03811115610f4357610f43611f37565b604051908082528060200260200182016040528015610f6c578160200160208202803683370190505b50905060005b6009830154811015610fcd57826008018181548110610f9357610f9361276e565b9060005260206000200154828281518110610fb057610fb061276e565b602090810291909101015280610fc581612753565b915050610f72565b50604051806101a0016040528083600001548152602001836001018054610ff390612784565b80601f016020809104026020016040519081016040528092919081815260200182805461101f90612784565b801561106c5780601f106110415761010080835404028352916020019161106c565b820191906000526020600020905b81548152906001019060200180831161104f57829003601f168201915b5050505050815260200183600201805461108590612784565b80601f01602080910402602001604051908101604052809291908181526020018280546110b190612784565b80156110fe5780601f106110d3576101008083540402835291602001916110fe565b820191906000526020600020905b8154815290600101906020018083116110e157829003601f168201915b5050505050815260200183600301548152602001836004015481526020018360050154815260200183600601805480602002602001604051908101604052809291908181526020016000905b828210156111f657838290600052602060002001805461116990612784565b80601f016020809104026020016040519081016040528092919081815260200182805461119590612784565b80156111e25780601f106111b7576101008083540402835291602001916111e2565b820191906000526020600020905b8154815290600101906020018083116111c557829003601f168201915b50505050508152602001906001019061114a565b50505050815260200183600701805461120e90612784565b80601f016020809104026020016040519081016040528092919081815260200182805461123a90612784565b80156112875780601f1061125c57610100808354040283529160200191611287565b820191906000526020600020905b81548152906001019060200180831161126a57829003601f168201915b50505050508152602001828152602001836009018054806020026020016040519081016040528092919081815260200182805480156112ef57602002820191906000526020600020905b81546001600160a01b031681526001909101906020018083116112d1575b5050505050815260200183600a0154815260200183600b0154815260200183600c01805461131c90612784565b80601f016020809104026020016040519081016040528092919081815260200182805461134890612784565b80156113955780601f1061136a57610100808354040283529160200191611395565b820191906000526020600020905b81548152906001019060200180831161137857829003601f168201915b50505050508152508484815181106113af576113af61276e565b6020026020010181905250505080806113c790612753565b915050610f0c565b50919050565b6113dd611ded565b60035482106113fe5760405162461bcd60e51b81526004016102aa9061262b565b60026000838152602001908152602001600020604051806101a00160405290816000820154815260200160018201805461143790612784565b80601f016020809104026020016040519081016040528092919081815260200182805461146390612784565b80156114b05780601f10611485576101008083540402835291602001916114b0565b820191906000526020600020905b81548152906001019060200180831161149357829003601f168201915b505050505081526020016002820180546114c990612784565b80601f01602080910402602001604051908101604052809291908181526020018280546114f590612784565b80156115425780601f1061151757610100808354040283529160200191611542565b820191906000526020600020905b81548152906001019060200180831161152557829003601f168201915b5050505050815260200160038201548152602001600482015481526020016005820154815260200160068201805480602002602001604051908101604052809291908181526020016000905b8282101561163a5783829060005260206000200180546115ad90612784565b80601f01602080910402602001604051908101604052809291908181526020018280546115d990612784565b80156116265780601f106115fb57610100808354040283529160200191611626565b820191906000526020600020905b81548152906001019060200180831161160957829003601f168201915b50505050508152602001906001019061158e565b50505050815260200160078201805461165290612784565b80601f016020809104026020016040519081016040528092919081815260200182805461167e90612784565b80156116cb5780601f106116a0576101008083540402835291602001916116cb565b820191906000526020600020905b8154815290600101906020018083116116ae57829003601f168201915b505050505081526020016008820180548060200260200160405190810160405280929190818152602001828054801561172357602002820191906000526020600020905b81548152602001906001019080831161170f575b505050505081526020016009820180548060200260200160405190810160405280929190818152602001828054801561178557602002820191906000526020600020905b81546001600160a01b03168152600190910190602001808311611767575b50505050508152602001600a8201548152602001600b8201548152602001600c820180546117b290612784565b80601f01602080910402602001604051908101604052809291908181526020018280546117de90612784565b801561182b5780601f106118005761010080835404028352916020019161182b565b820191906000526020600020905b81548152906001019060200180831161180e57829003601f168201915b5050505050815250509050919050565b88600354811061185d5760405162461bcd60e51b81526004016102aa9061262b565b82841061187c5760405162461bcd60e51b81526004016102aa9061271f565b60008a81526002602090815260409091208a5190916118a29160018401918d0190611d10565b5088516118b890600283019060208c0190611d10565b506003810188905586516118d590600683019060208a0190611d94565b5085516118eb9060078301906020890190611d10565b50600a8101859055600b8101849055825161190f90600c8301906020860190611d10565b505050505050505050505050565b6002602052600090815260409020805460018201805491929161193f90612784565b80601f016020809104026020016040519081016040528092919081815260200182805461196b90612784565b80156119b85780601f1061198d576101008083540402835291602001916119b8565b820191906000526020600020905b81548152906001019060200180831161199b57829003601f168201915b5050505050908060020180546119cd90612784565b80601f01602080910402602001604051908101604052809291908181526020018280546119f990612784565b8015611a465780601f10611a1b57610100808354040283529160200191611a46565b820191906000526020600020905b815481529060010190602001808311611a2957829003601f168201915b505050505090806003015490806004015490806005015490806007018054611a6d90612784565b80601f0160208091040260200160405190810160405280929190818152602001828054611a9990612784565b8015611ae65780601f10611abb57610100808354040283529160200191611ae6565b820191906000526020600020905b815481529060010190602001808311611ac957829003601f168201915b50505050509080600a01549080600b01549080600c018054611b0790612784565b80601f0160208091040260200160405190810160405280929190818152602001828054611b3390612784565b8015611b805780601f10611b5557610100808354040283529160200191611b80565b820191906000526020600020905b815481529060010190602001808311611b6357829003601f168201915b505050505090508a565b60007f00000000000000000000000000000000000000000000000000000000000000006001600160a01b0316634000aea07f000000000000000000000000000000000000000000000000000000000000000084866000604051602001611bfa929190918252602082015260400190565b6040516020818303038152906040526040518463ffffffff1660e01b8152600401611c2793929190612801565b602060405180830381600087803b158015611c4157600080fd5b505af1158015611c55573d6000803e3d6000fd5b505050506040513d601f19601f82011682018060405250810190611c799190612831565b5060008381526020818152604080832054815180840188905280830185905230606082015260808082018390528351808303909101815260a090910190925281519183019190912086845292909152611cd39060016127d2565b60008581526020818152604091829020929092558051808301879052808201849052815180820383018152606090910190915280519101206103fd565b828054611d1c90612784565b90600052602060002090601f016020900481019282611d3e5760008555611d84565b82601f10611d5757805160ff1916838001178555611d84565b82800160010185558215611d84579182015b82811115611d84578251825591602001919060010190611d69565b50611d90929150611eca565b5090565b828054828255906000526020600020908101928215611de1579160200282015b82811115611de15782518051611dd1918491602090910190611d10565b5091602001919060010190611db4565b50611d90929150611edf565b604051806101a00160405280600081526020016060815260200160608152602001600081526020016000815260200160008152602001606081526020016060815260200160608152602001606081526020016000815260200160008152602001606081525090565b508054611e6190612784565b6000825580601f10611e71575050565b601f016020900490600052602060002090810190611e8f9190611eca565b50565b5080546000825590600052602060002090810190611e8f9190611edf565b5080546000825590600052602060002090810190611e8f91905b5b80821115611d905760008155600101611ecb565b80821115611d90576000611ef38282611e55565b50600101611edf565b60008060408385031215611f0f57600080fd5b50508035926020909101359150565b600060208284031215611f3057600080fd5b5035919050565b634e487b7160e01b600052604160045260246000fd5b604051601f8201601f191681016001600160401b0381118282101715611f7557611f75611f37565b604052919050565b60006001600160401b03831115611f9657611f96611f37565b611fa9601f8401601f1916602001611f4d565b9050828152838383011115611fbd57600080fd5b828260208301376000602084830101529392505050565b600060208284031215611fe657600080fd5b81356001600160401b03811115611ffc57600080fd5b8201601f8101841361200d57600080fd5b6103fd84823560208401611f7d565b600082601f83011261202d57600080fd5b610c3183833560208501611f7d565b600082601f83011261204d57600080fd5b813560206001600160401b038083111561206957612069611f37565b8260051b612078838201611f4d565b938452858101830193838101908886111561209257600080fd5b84880192505b858310156120ce578235848111156120b05760008081fd5b6120be8a87838c010161201c565b8352509184019190840190612098565b98975050505050505050565b600080600080600080600080610100898b0312156120f757600080fd5b88356001600160401b038082111561210e57600080fd5b61211a8c838d0161201c565b995060208b013591508082111561213057600080fd5b61213c8c838d0161201c565b985060408b0135975060608b013591508082111561215957600080fd5b6121658c838d0161203c565b965060808b013591508082111561217b57600080fd5b6121878c838d0161201c565b955060a08b0135945060c08b0135935060e08b01359150808211156121ab57600080fd5b506121b88b828c0161201c565b9150509295985092959890939650565b6000815180845260005b818110156121ee576020818501810151868301820152016121d2565b81811115612200576000602083870101525b50601f01601f19169290920160200192915050565b82151581526040602082015260006103fd60408301846121c8565b60006020828403121561224257600080fd5b81356001600160a01b0381168114610c3157600080fd5b600081518084526020808501808196508360051b8101915082860160005b858110156122a157828403895261228f8483516121c8565b98850198935090840190600101612277565b5091979650505050505050565b600081518084526020808501945080840160005b838110156122de578151875295820195908201906001016122c2565b509495945050505050565b600081518084526020808501945080840160005b838110156122de5781516001600160a01b0316875295820195908201906001016122fd565b60006101a0825184526020830151816020860152612342828601826121c8565b9150506040830151848203604086015261235c82826121c8565b915050606083015160608501526080830151608085015260a083015160a085015260c083015184820360c08601526123948282612259565b91505060e083015184820360e08601526123ae82826121c8565b91505061010080840151858303828701526123c983826122ae565b9250505061012080840151858303828701526123e583826122e9565b92505050610140808401518186015250610160808401518186015250610180808401518583038287015261241983826121c8565b9695505050505050565b6000602080830181845280855180835260408601915060408160051b870101925083870160005b8281101561247857603f19888603018452612466858351612322565b9450928501929085019060010161244a565b5092979650505050505050565b6001600160a01b0391909116815260200190565b602081526000610c316020830184612322565b60008060008060008060008060006101208a8c0312156124cb57600080fd5b8935985060208a01356001600160401b03808211156124e957600080fd5b6124f58d838e0161201c565b995060408c013591508082111561250b57600080fd5b6125178d838e0161201c565b985060608c0135975060808c013591508082111561253457600080fd5b6125408d838e0161203c565b965060a08c013591508082111561255657600080fd5b6125628d838e0161201c565b955060c08c0135945060e08c013593506101008c013591508082111561258757600080fd5b506125948c828d0161201c565b9150509295985092959850929598565b60006101408c83528060208401526125be8184018d6121c8565b905082810360408401526125d2818c6121c8565b90508960608401528860808401528760a084015282810360c08401526125f881886121c8565b90508560e08401528461010084015282810361012084015261261a81856121c8565b9d9c50505050505050505050505050565b602080825260179082015276111bdb985d1a5bdb88191bd95cc81b9bdd08195e1a5cdd604a1b604082015260600190565b80516001600160501b038116811461267357600080fd5b919050565b600080600080600060a0868803121561269057600080fd5b6126998661265c565b94506020860151935060408601519250606086015191506126bc6080870161265c565b90509295509295909350565b634e487b7160e01b600052601160045260246000fd5b60008160001904831182151516156126f8576126f86126c8565b500290565b60008261271a57634e487b7160e01b600052601260045260246000fd5b500490565b6020808252601a9082015279496e76616c696420737461727420616e6420656e642074696d6560301b604082015260600190565b6000600019821415612767576127676126c8565b5060010190565b634e487b7160e01b600052603260045260246000fd5b600181811c9082168061279857607f821691505b602082108114156113cf57634e487b7160e01b600052602260045260246000fd5b6000602082840312156127cb57600080fd5b5051919050565b600082198211156127e5576127e56126c8565b500190565b6000828210156127fc576127fc6126c8565b500390565b60018060a01b038416815282602082015260606040820152600061282860608301846121c8565b95945050505050565b60006020828403121561284357600080fd5b81518015158114610c3157600080fdfea2646970667358221220ab0208135116fd67e6ec29b8964d963d9462b848af2854a256791fdffab2584c64736f6c63430008090033",
  "linkReferences": {},
  "deployedLinkReferences": {}
}